Component: Arm Compiler for Embedded 6.19 Tool: armlink [5e73cb00]

==============================================================================

Image Symbol Table

    Local Symbols

    Symbol Name                              Value     Ov Type        Size  Object(Section)

    ../clib/division.s                       0x00000000   Number         0  aeabi_sdiv.o ABSOLUTE
    ../clib/division.s                       0x00000000   Number         0  aeabi_sdiv_div0.o ABSOLUTE
    ../clib/longlong.c                       0x00000000   Number         0  llmul.o ABSOLUTE
    ../clib/microlib/ctype/ctype.c           0x00000000   Number         0  isspace_c.o ABSOLUTE
    ../clib/microlib/ctype/ctype.c           0x00000000   Number         0  ctype_o.o ABSOLUTE
    ../clib/microlib/ctype/ctype.c           0x00000000   Number         0  isalnum_o.o ABSOLUTE
    ../clib/microlib/ctype/ctype.c           0x00000000   Number         0  isalpha_o.o ABSOLUTE
    ../clib/microlib/ctype/ctype.c           0x00000000   Number         0  isblank_o.o ABSOLUTE
    ../clib/microlib/ctype/ctype.c           0x00000000   Number         0  iscntrl_o.o ABSOLUTE
    ../clib/microlib/ctype/ctype.c           0x00000000   Number         0  isdigit_o.o ABSOLUTE
    ../clib/microlib/ctype/ctype.c           0x00000000   Number         0  isgraph_o.o ABSOLUTE
    ../clib/microlib/ctype/ctype.c           0x00000000   Number         0  islower_o.o ABSOLUTE
    ../clib/microlib/ctype/ctype.c           0x00000000   Number         0  isprint_o.o ABSOLUTE
    ../clib/microlib/ctype/ctype.c           0x00000000   Number         0  ispunct_o.o ABSOLUTE
    ../clib/microlib/ctype/ctype.c           0x00000000   Number         0  isspace_o.o ABSOLUTE
    ../clib/microlib/ctype/ctype.c           0x00000000   Number         0  isupper_o.o ABSOLUTE
    ../clib/microlib/ctype/ctype.c           0x00000000   Number         0  isxdigit_o.o ABSOLUTE
    ../clib/microlib/ctype/ctype.c           0x00000000   Number         0  ctype_c.o ABSOLUTE
    ../clib/microlib/ctype/tolower.c         0x00000000   Number         0  tolower.o ABSOLUTE
    ../clib/microlib/division.c              0x00000000   Number         0  uidiv.o ABSOLUTE
    ../clib/microlib/division.c              0x00000000   Number         0  uldiv.o ABSOLUTE
    ../clib/microlib/division.c              0x00000000   Number         0  uidiv_div0.o ABSOLUTE
    ../clib/microlib/division.c              0x00000000   Number         0  idiv_div0.o ABSOLUTE
    ../clib/microlib/division.c              0x00000000   Number         0  idiv0.o ABSOLUTE
    ../clib/microlib/errno.c                 0x00000000   Number         0  errno.o ABSOLUTE
    ../clib/microlib/init/entry.s            0x00000000   Number         0  entry.o ABSOLUTE
    ../clib/microlib/init/entry.s            0x00000000   Number         0  entry2.o ABSOLUTE
    ../clib/microlib/init/entry.s            0x00000000   Number         0  entry5.o ABSOLUTE
    ../clib/microlib/init/entry.s            0x00000000   Number         0  entry7a.o ABSOLUTE
    ../clib/microlib/init/entry.s            0x00000000   Number         0  entry7b.o ABSOLUTE
    ../clib/microlib/init/entry.s            0x00000000   Number         0  entry8a.o ABSOLUTE
    ../clib/microlib/init/entry.s            0x00000000   Number         0  entry8b.o ABSOLUTE
    ../clib/microlib/init/entry.s            0x00000000   Number         0  entry9a.o ABSOLUTE
    ../clib/microlib/init/entry.s            0x00000000   Number         0  entry9b.o ABSOLUTE
    ../clib/microlib/init/entry.s            0x00000000   Number         0  entry10a.o ABSOLUTE
    ../clib/microlib/init/entry.s            0x00000000   Number         0  entry10b.o ABSOLUTE
    ../clib/microlib/init/entry.s            0x00000000   Number         0  entry11a.o ABSOLUTE
    ../clib/microlib/init/entry.s            0x00000000   Number         0  entry11b.o ABSOLUTE
    ../clib/microlib/longlong.c              0x00000000   Number         0  llshl.o ABSOLUTE
    ../clib/microlib/longlong.c              0x00000000   Number         0  llushr.o ABSOLUTE
    ../clib/microlib/longlong.c              0x00000000   Number         0  llsshr.o ABSOLUTE
    ../clib/microlib/malloc/malloc.c         0x00000000   Number         0  malloc.o ABSOLUTE
    ../clib/microlib/malloc/malloc.c         0x00000000   Number         0  mallocr.o ABSOLUTE
    ../clib/microlib/malloc/malloc.c         0x00000000   Number         0  malloca.o ABSOLUTE
    ../clib/microlib/malloc/malloc.c         0x00000000   Number         0  mallocra.o ABSOLUTE
    ../clib/microlib/malloc/mvars.c          0x00000000   Number         0  mvars.o ABSOLUTE
    ../clib/microlib/printf/printf.c         0x00000000   Number         0  printfa.o ABSOLUTE
    ../clib/microlib/stdio/streams.c         0x00000000   Number         0  stdout.o ABSOLUTE
    ../clib/microlib/string/memcpy.c         0x00000000   Number         0  memcpya.o ABSOLUTE
    ../clib/microlib/string/memcpy.c         0x00000000   Number         0  memcpyb.o ABSOLUTE
    ../clib/microlib/string/memset.c         0x00000000   Number         0  memseta.o ABSOLUTE
    ../clib/microlib/string/strcmp.c         0x00000000   Number         0  strcmp.o ABSOLUTE
    ../clib/microlib/string/strcpy.c         0x00000000   Number         0  strcpy.o ABSOLUTE
    ../clib/microlib/string/strlen.c         0x00000000   Number         0  strlen.o ABSOLUTE
    ../clib/microlib/string/strncmp.c        0x00000000   Number         0  strncmp.o ABSOLUTE
    ../clib/microlib/string/strstr.c         0x00000000   Number         0  strstr.o ABSOLUTE
    ../clib/microlib/stubs.s                 0x00000000   Number         0  iusefp.o ABSOLUTE
    ../clib/scanf.c                          0x00000000   Number         0  sscanf.o ABSOLUTE
    ../clib/scanf.c                          0x00000000   Number         0  atoi.o ABSOLUTE
    ../clib/scanf.c                          0x00000000   Number         0  _scanf_longlong.o ABSOLUTE
    ../clib/scanf.c                          0x00000000   Number         0  _scanf_int.o ABSOLUTE
    ../clib/scanf.c                          0x00000000   Number         0  _scanf_str.o ABSOLUTE
    ../clib/scanf.c                          0x00000000   Number         0  scanf_fp.o ABSOLUTE
    ../clib/scanf.c                          0x00000000   Number         0  scanf_char.o ABSOLUTE
    ../clib/scanf.c                          0x00000000   Number         0  _sgetc.o ABSOLUTE
    ../clib/scanf.c                          0x00000000   Number         0  strtod.o ABSOLUTE
    ../clib/scanf.c                          0x00000000   Number         0  strtol.o ABSOLUTE
    ../clib/scanf.c                          0x00000000   Number         0  _chval.o ABSOLUTE
    ../clib/scanf.c                          0x00000000   Number         0  _scanf.o ABSOLUTE
    ../clib/scanf.c                          0x00000000   Number         0  _strtoul.o ABSOLUTE
    ../fplib/microlib/d2f.c                  0x00000000   Number         0  d2f.o ABSOLUTE
    ../fplib/microlib/f2d.c                  0x00000000   Number         0  f2d.o ABSOLUTE
    ../fplib/microlib/fpadd.c                0x00000000   Number         0  fadd.o ABSOLUTE
    ../fplib/microlib/fpadd.c                0x00000000   Number         0  dadd.o ABSOLUTE
    ../fplib/microlib/fpcmp.c                0x00000000   Number         0  dcmple.o ABSOLUTE
    ../fplib/microlib/fpcmp.c                0x00000000   Number         0  dcmplt.o ABSOLUTE
    ../fplib/microlib/fpcmp.c                0x00000000   Number         0  dcmpgt.o ABSOLUTE
    ../fplib/microlib/fpcmp.c                0x00000000   Number         0  dcmpeq.o ABSOLUTE
    ../fplib/microlib/fpdiv.c                0x00000000   Number         0  fdiv.o ABSOLUTE
    ../fplib/microlib/fpdiv.c                0x00000000   Number         0  ddiv.o ABSOLUTE
    ../fplib/microlib/fpepilogue.c           0x00000000   Number         0  fepilogue.o ABSOLUTE
    ../fplib/microlib/fpepilogue.c           0x00000000   Number         0  depilogue.o ABSOLUTE
    ../fplib/microlib/fpfix.c                0x00000000   Number         0  ffixi.o ABSOLUTE
    ../fplib/microlib/fpfix.c                0x00000000   Number         0  dfixi.o ABSOLUTE
    ../fplib/microlib/fpfix.c                0x00000000   Number         0  dfixul.o ABSOLUTE
    ../fplib/microlib/fpflt.c                0x00000000   Number         0  fflti.o ABSOLUTE
    ../fplib/microlib/fpflt.c                0x00000000   Number         0  ffltui.o ABSOLUTE
    ../fplib/microlib/fpflt.c                0x00000000   Number         0  dflti.o ABSOLUTE
    ../fplib/microlib/fpflt.c                0x00000000   Number         0  dfltul.o ABSOLUTE
    ../fplib/microlib/fpmul.c                0x00000000   Number         0  fmul.o ABSOLUTE
    ../fplib/microlib/fpmul.c                0x00000000   Number         0  dmul.o ABSOLUTE
    ../mathlib/atof.c                        0x00000000   Number         0  atof.o ABSOLUTE
    ../mathlib/strtod.c                      0x00000000   Number         0  strtod.o ABSOLUTE
    ..\Libraries\Startup\startup_cw32l010.s  0x00000000   Number         0  startup_cw32l010.o ABSOLUTE
    DefultParameter.c                        0x00000000   Number         0  defultparameter.o ABSOLUTE
    bsp_4g_driver.c                          0x00000000   Number         0  bsp_4g_driver.o ABSOLUTE
    bsp_4g_http_connect.c                    0x00000000   Number         0  bsp_4g_http_connect.o ABSOLUTE
    bsp_4g_task.c                            0x00000000   Number         0  bsp_4g_task.o ABSOLUTE
    bsp_adc.c                                0x00000000   Number         0  bsp_adc.o ABSOLUTE
    bsp_flash.c                              0x00000000   Number         0  bsp_flash.o ABSOLUTE
    bsp_gpio.c                               0x00000000   Number         0  bsp_gpio.o ABSOLUTE
    bsp_rtc.c                                0x00000000   Number         0  bsp_rtc.o ABSOLUTE
    bsp_tim.c                                0x00000000   Number         0  bsp_tim.o ABSOLUTE
    bsp_uart.c                               0x00000000   Number         0  bsp_uart.o ABSOLUTE
    cJSON.c                                  0x00000000   Number         0  cjson.o ABSOLUTE
    cdrcmple.s                               0x00000000   Number         0  cdrcmple.o ABSOLUTE
    cw32l010_adc.c                           0x00000000   Number         0  cw32l010_adc.o ABSOLUTE
    cw32l010_btim.c                          0x00000000   Number         0  cw32l010_btim.o ABSOLUTE
    cw32l010_flash.c                         0x00000000   Number         0  cw32l010_flash.o ABSOLUTE
    cw32l010_gpio.c                          0x00000000   Number         0  cw32l010_gpio.o ABSOLUTE
    cw32l010_rtc.c                           0x00000000   Number         0  cw32l010_rtc.o ABSOLUTE
    cw32l010_sysctrl.c                       0x00000000   Number         0  cw32l010_sysctrl.o ABSOLUTE
    cw32l010_systick.c                       0x00000000   Number         0  cw32l010_systick.o ABSOLUTE
    cw32l010_uart.c                          0x00000000   Number         0  cw32l010_uart.o ABSOLUTE
    dc.s                                     0x00000000   Number         0  dc.o ABSOLUTE
    handlers.s                               0x00000000   Number         0  handlers.o ABSOLUTE
    init.s                                   0x00000000   Number         0  init.o ABSOLUTE
    interrupts_cw32l010.c                    0x00000000   Number         0  interrupts_cw32l010.o ABSOLUTE
    json_options.c                           0x00000000   Number         0  json_options.o ABSOLUTE
    main.c                                   0x00000000   Number         0  main.o ABSOLUTE
    msg_package.c                            0x00000000   Number         0  msg_package.o ABSOLUTE
    system_cw32l010.c                        0x00000000   Number         0  system_cw32l010.o ABSOLUTE
    RESET                                    0x00000000   Section      192  startup_cw32l010.o(RESET)
    .ARM.Collect$$$$00000000                 0x000000c0   Section        0  entry.o(.ARM.Collect$$$$00000000)
    .ARM.Collect$$$$00000001                 0x000000c0   Section        4  entry2.o(.ARM.Collect$$$$00000001)
    .ARM.Collect$$$$00000004                 0x000000c4   Section        4  entry5.o(.ARM.Collect$$$$00000004)
    .ARM.Collect$$$$00000008                 0x000000c8   Section        0  entry7b.o(.ARM.Collect$$$$00000008)
    .ARM.Collect$$$$0000000A                 0x000000c8   Section        0  entry8b.o(.ARM.Collect$$$$0000000A)
    .ARM.Collect$$$$0000000B                 0x000000c8   Section        8  entry9a.o(.ARM.Collect$$$$0000000B)
    __lit__00000000                          0x000000d0   Data           4  entry2.o(.ARM.Collect$$$$00002712)
    .ARM.Collect$$$$0000000D                 0x000000d0   Section        0  entry10a.o(.ARM.Collect$$$$0000000D)
    .ARM.Collect$$$$0000000F                 0x000000d0   Section        0  entry11a.o(.ARM.Collect$$$$0000000F)
    .ARM.Collect$$$$00002712                 0x000000d0   Section        4  entry2.o(.ARM.Collect$$$$00002712)
    .text                                    0x000000d4   Section       40  startup_cw32l010.o(.text)
    .text                                    0x000000fc   Section        0  uldiv.o(.text)
    .text                                    0x0000015c   Section        0  memcpya.o(.text)
    .text                                    0x00000180   Section        0  memseta.o(.text)
    .text                                    0x000001a4   Section        0  strstr.o(.text)
    .text                                    0x000001cc   Section        0  strlen.o(.text)
    .text                                    0x000001dc   Section        0  sscanf.o(.text)
    .text                                    0x00000218   Section        0  fadd.o(.text)
    .text                                    0x000002ca   Section        0  fmul.o(.text)
    .text                                    0x00000344   Section        0  fdiv.o(.text)
    .text                                    0x000003c0   Section        0  dadd.o(.text)
    .text                                    0x00000524   Section        0  dmul.o(.text)
    .text                                    0x000005f4   Section        0  fflti.o(.text)
    .text                                    0x0000060a   Section        0  ffltui.o(.text)
    .text                                    0x00000618   Section        0  ffixi.o(.text)
    .text                                    0x0000064c   Section        0  dfixi.o(.text)
    .text                                    0x00000694   Section        0  f2d.o(.text)
    .text                                    0x000006bc   Section        0  d2f.o(.text)
    .text                                    0x000006f4   Section        0  uidiv_div0.o(.text)
    .text                                    0x00000732   Section        0  llshl.o(.text)
    .text                                    0x00000752   Section        0  llushr.o(.text)
    .text                                    0x00000774   Section        0  llsshr.o(.text)
    .text                                    0x0000079a   Section        0  _scanf_longlong.o(.text)
    .text                                    0x000008e4   Section        0  _scanf_int.o(.text)
    .text                                    0x00000a2e   Section        0  _scanf_str.o(.text)
    _fp_value                                0x00000b19   Thumb Code   286  scanf_fp.o(.text)
    .text                                    0x00000b18   Section        0  scanf_fp.o(.text)
    _scanf_char_input                        0x00000e8d   Thumb Code    12  scanf_char.o(.text)
    .text                                    0x00000e8c   Section        0  scanf_char.o(.text)
    .text                                    0x00000eb8   Section        0  _sgetc.o(.text)
    .text                                    0x00000efc   Section        0  iusefp.o(.text)
    .text                                    0x00000efc   Section        0  fepilogue.o(.text)
    .text                                    0x00000f7e   Section        0  depilogue.o(.text)
    .text                                    0x0000103c   Section        0  ddiv.o(.text)
    .text                                    0x0000112c   Section        0  dfixul.o(.text)
    .text                                    0x0000116c   Section       40  cdrcmple.o(.text)
    .text                                    0x00001194   Section       36  init.o(.text)
    .text                                    0x000011b8   Section        0  llmul.o(.text)
    .text                                    0x000011e8   Section        0  ctype_o.o(.text)
    .text                                    0x000011f0   Section        0  isspace_o.o(.text)
    .text                                    0x00001202   Section        0  _chval.o(.text)
    .text                                    0x00001220   Section        0  _scanf.o(.text)
    .text                                    0x00001558   Section        0  dfltul.o(.text)
    [Anonymous Symbol]                       0x00001574   Section        0  cw32l010_adc.o(.text.ADC_ClearITPendingAll)
    [Anonymous Symbol]                       0x0000157c   Section        0  cw32l010_adc.o(.text.ADC_ClearITPendingBit)
    __arm_cp.8_0                             0x00001594   Number         4  cw32l010_adc.o(.text.ADC_ClearITPendingBit)
    [Anonymous Symbol]                       0x00001598   Section        0  cw32l010_adc.o(.text.ADC_DeInit)
    __arm_cp.0_0                             0x000015ac   Number         4  cw32l010_adc.o(.text.ADC_DeInit)
    [Anonymous Symbol]                       0x000015b0   Section        0  cw32l010_adc.o(.text.ADC_Disable)
    [Anonymous Symbol]                       0x000015bc   Section        0  cw32l010_adc.o(.text.ADC_Enable)
    [Anonymous Symbol]                       0x000015c8   Section        0  cw32l010_adc.o(.text.ADC_GetConversionValue)
    __arm_cp.12_0                            0x000015dc   Number         4  cw32l010_adc.o(.text.ADC_GetConversionValue)
    [Anonymous Symbol]                       0x000015e0   Section        0  interrupts_cw32l010.o(.text.ADC_IRQHandler)
    [Anonymous Symbol]                       0x000015e4   Section        0  cw32l010_adc.o(.text.ADC_Init)
    __arm_cp.1_0                             0x00001744   Number         4  cw32l010_adc.o(.text.ADC_Init)
    __arm_cp.1_2                             0x00001748   Number         4  cw32l010_adc.o(.text.ADC_Init)
    __arm_cp.1_3                             0x0000174c   Number         4  cw32l010_adc.o(.text.ADC_Init)
    __arm_cp.1_4                             0x00001750   Number         4  cw32l010_adc.o(.text.ADC_Init)
    __arm_cp.1_5                             0x00001754   Number         4  cw32l010_adc.o(.text.ADC_Init)
    __arm_cp.1_6                             0x00001758   Number         4  cw32l010_adc.o(.text.ADC_Init)
    __arm_cp.1_7                             0x0000175c   Number         4  cw32l010_adc.o(.text.ADC_Init)
    __arm_cp.1_8                             0x00001760   Number         4  cw32l010_adc.o(.text.ADC_Init)
    __arm_cp.1_9                             0x00001764   Number         4  cw32l010_adc.o(.text.ADC_Init)
    [Anonymous Symbol]                       0x00001768   Section        0  cw32l010_adc.o(.text.ADC_SoftwareStartConvCmd)
    __arm_cp.10_0                            0x00001794   Number         4  cw32l010_adc.o(.text.ADC_SoftwareStartConvCmd)
    [Anonymous Symbol]                       0x00001798   Section        0  interrupts_cw32l010.o(.text.ATIM_IRQHandler)
    [Anonymous Symbol]                       0x0000179c   Section        0  bsp_tim.o(.text.BTIM1_IRQHandler)
    __arm_cp.3_0                             0x000017b8   Number         4  bsp_tim.o(.text.BTIM1_IRQHandler)
    [Anonymous Symbol]                       0x000017bc   Section        0  interrupts_cw32l010.o(.text.BTIM2_IRQHandler)
    [Anonymous Symbol]                       0x000017be   Section        0  interrupts_cw32l010.o(.text.BTIM3_IRQHandler)
    [Anonymous Symbol]                       0x000017c0   Section        0  cw32l010_btim.o(.text.BTIM_ClearITPendingBit)
    [Anonymous Symbol]                       0x000017d6   Section        0  cw32l010_btim.o(.text.BTIM_GetITStatus)
    [Anonymous Symbol]                       0x000017f4   Section        0  interrupts_cw32l010.o(.text.CLKFAULT_IRQHandler)
    [Anonymous Symbol]                       0x000017f6   Section        0  bsp_4g_task.o(.text.Device_4G_Task)
    [Anonymous Symbol]                       0x00001804   Section        0  interrupts_cw32l010.o(.text.FLASHRAM_IRQHandler)
    [Anonymous Symbol]                       0x00001808   Section        0  cw32l010_flash.o(.text.FLASH_ErasePage)
    [Anonymous Symbol]                       0x00001890   Section        0  cw32l010_flash.o(.text.FLASH_LockAllPages)
    [Anonymous Symbol]                       0x00001898   Section        0  cw32l010_flash.o(.text.FLASH_SetLatency)
    __arm_cp.0_1                             0x000018b4   Number         4  cw32l010_flash.o(.text.FLASH_SetLatency)
    __arm_cp.0_3                             0x000018b8   Number         4  cw32l010_flash.o(.text.FLASH_SetLatency)
    [Anonymous Symbol]                       0x000018bc   Section        0  cw32l010_flash.o(.text.FLASH_UnlockPage)
    __arm_cp.5_0                             0x000018e4   Number         4  cw32l010_flash.o(.text.FLASH_UnlockPage)
    [Anonymous Symbol]                       0x000018e8   Section        0  cw32l010_flash.o(.text.FLASH_WriteBytes)
    __arm_cp.9_0                             0x0000198c   Number         4  cw32l010_flash.o(.text.FLASH_WriteBytes)
    __arm_cp.9_1                             0x00001990   Number         4  cw32l010_flash.o(.text.FLASH_WriteBytes)
    __arm_cp.9_2                             0x00001994   Number         4  cw32l010_flash.o(.text.FLASH_WriteBytes)
    __arm_cp.9_3                             0x00001998   Number         4  cw32l010_flash.o(.text.FLASH_WriteBytes)
    __arm_cp.9_4                             0x0000199c   Number         4  cw32l010_flash.o(.text.FLASH_WriteBytes)
    [Anonymous Symbol]                       0x000019a0   Section        0  bsp_gpio.o(.text.GPIOA_IRQHandler)
    [Anonymous Symbol]                       0x000019a4   Section        0  bsp_gpio.o(.text.GPIOB_IRQHandler)
    __arm_cp.1_0                             0x000019c0   Number         4  bsp_gpio.o(.text.GPIOB_IRQHandler)
    __arm_cp.1_1                             0x000019c4   Number         4  bsp_gpio.o(.text.GPIOB_IRQHandler)
    [Anonymous Symbol]                       0x000019c8   Section        0  cw32l010_gpio.o(.text.GPIO_Init)
    __arm_cp.0_3                             0x00001aec   Number         4  cw32l010_gpio.o(.text.GPIO_Init)
    [Anonymous Symbol]                       0x00001af0   Section        0  cw32l010_gpio.o(.text.GPIO_WritePin)
    [Anonymous Symbol]                       0x00001b1c   Section        0  interrupts_cw32l010.o(.text.GTIM1_IRQHandler)
    [Anonymous Symbol]                       0x00001b20   Section        0  cw32l010_systick.o(.text.GetTick)
    __arm_cp.3_0                             0x00001b28   Number         4  cw32l010_systick.o(.text.GetTick)
    [Anonymous Symbol]                       0x00001b2c   Section        0  bsp_4g_driver.o(.text.Gpio_4g_Init)
    __arm_cp.0_0                             0x00001b74   Number         4  bsp_4g_driver.o(.text.Gpio_4g_Init)
    __arm_cp.0_1                             0x00001b78   Number         4  bsp_4g_driver.o(.text.Gpio_4g_Init)
    __arm_cp.0_2                             0x00001b7c   Number         4  bsp_4g_driver.o(.text.Gpio_4g_Init)
    __arm_cp.0_3                             0x00001b80   Number         4  bsp_4g_driver.o(.text.Gpio_4g_Init)
    [Anonymous Symbol]                       0x00001b84   Section        0  interrupts_cw32l010.o(.text.HardFault_Handler)
    [Anonymous Symbol]                       0x00001b88   Section        0  interrupts_cw32l010.o(.text.I2C1_IRQHandler)
    [Anonymous Symbol]                       0x00001b8c   Section        0  cw32l010_systick.o(.text.InitTick)
    __arm_cp.0_0                             0x00001bcc   Number         4  cw32l010_systick.o(.text.InitTick)
    __arm_cp.0_1                             0x00001bd0   Number         4  cw32l010_systick.o(.text.InitTick)
    [Anonymous Symbol]                       0x00001bd4   Section        0  interrupts_cw32l010.o(.text.LPTIM_IRQHandler)
    [Anonymous Symbol]                       0x00001bd6   Section        0  interrupts_cw32l010.o(.text.LVD_IRQHandler)
    [Anonymous Symbol]                       0x00001bd8   Section        0  interrupts_cw32l010.o(.text.NMI_Handler)
    [Anonymous Symbol]                       0x00001bdc   Section        0  cw32l010_rtc.o(.text.RTC_AWTCmd)
    [Anonymous Symbol]                       0x00001c68   Section        0  cw32l010_rtc.o(.text.RTC_AWTConfig)
    [Anonymous Symbol]                       0x00001cf0   Section        0  cw32l010_rtc.o(.text.RTC_AWT_PSC_set)
    __arm_cp.24_3                            0x00001d90   Number         4  cw32l010_rtc.o(.text.RTC_AWT_PSC_set)
    __arm_cp.24_4                            0x00001d94   Number         4  cw32l010_rtc.o(.text.RTC_AWT_PSC_set)
    __arm_cp.24_5                            0x00001d98   Number         4  cw32l010_rtc.o(.text.RTC_AWT_PSC_set)
    [Anonymous Symbol]                       0x00001d9c   Section        0  cw32l010_rtc.o(.text.RTC_AlarmCmd)
    __arm_cp.13_2                            0x00001e54   Number         4  cw32l010_rtc.o(.text.RTC_AlarmCmd)
    __arm_cp.13_3                            0x00001e58   Number         4  cw32l010_rtc.o(.text.RTC_AlarmCmd)
    [Anonymous Symbol]                       0x00001e5c   Section        0  cw32l010_rtc.o(.text.RTC_ClearITPendingBit)
    [Anonymous Symbol]                       0x00001ea8   Section        0  cw32l010_rtc.o(.text.RTC_Cmd)
    __arm_cp.2_1                             0x00001f00   Number         4  cw32l010_rtc.o(.text.RTC_Cmd)
    [Anonymous Symbol]                       0x00001f04   Section        0  cw32l010_rtc.o(.text.RTC_DeInit)
    __arm_cp.0_0                             0x00001f78   Number         4  cw32l010_rtc.o(.text.RTC_DeInit)
    __arm_cp.0_5                             0x00001f7c   Number         4  cw32l010_rtc.o(.text.RTC_DeInit)
    __arm_cp.0_6                             0x00001f80   Number         4  cw32l010_rtc.o(.text.RTC_DeInit)
    __arm_cp.0_8                             0x00001f84   Number         4  cw32l010_rtc.o(.text.RTC_DeInit)
    __arm_cp.0_9                             0x00001f88   Number         4  cw32l010_rtc.o(.text.RTC_DeInit)
    [Anonymous Symbol]                       0x00001f8c   Section        0  cw32l010_rtc.o(.text.RTC_GetITState)
    __arm_cp.6_0                             0x00001fb4   Number         4  cw32l010_rtc.o(.text.RTC_GetITState)
    [Anonymous Symbol]                       0x00001fb8   Section        0  cw32l010_rtc.o(.text.RTC_GetTime)
    __arm_cp.9_0                             0x00002030   Number         4  cw32l010_rtc.o(.text.RTC_GetTime)
    __arm_cp.9_1                             0x00002034   Number         4  cw32l010_rtc.o(.text.RTC_GetTime)
    [Anonymous Symbol]                       0x00002038   Section        0  bsp_rtc.o(.text.RTC_IRQHandler)
    __arm_cp.3_0                             0x00002080   Number         4  bsp_rtc.o(.text.RTC_IRQHandler)
    [Anonymous Symbol]                       0x00002084   Section        0  cw32l010_rtc.o(.text.RTC_ITConfig)
    __arm_cp.7_0                             0x00002120   Number         4  cw32l010_rtc.o(.text.RTC_ITConfig)
    __arm_cp.7_1                             0x00002124   Number         4  cw32l010_rtc.o(.text.RTC_ITConfig)
    __arm_cp.7_2                             0x00002128   Number         4  cw32l010_rtc.o(.text.RTC_ITConfig)
    __arm_cp.7_3                             0x0000212c   Number         4  cw32l010_rtc.o(.text.RTC_ITConfig)
    [Anonymous Symbol]                       0x00002130   Section        0  cw32l010_rtc.o(.text.RTC_Init)
    __arm_cp.1_0                             0x00002174   Number         4  cw32l010_rtc.o(.text.RTC_Init)
    __arm_cp.1_1                             0x00002178   Number         4  cw32l010_rtc.o(.text.RTC_Init)
    [Anonymous Symbol]                       0x0000217c   Section        0  cw32l010_rtc.o(.text.RTC_SetAlarm)
    __arm_cp.11_0                            0x00002238   Number         4  cw32l010_rtc.o(.text.RTC_SetAlarm)
    __arm_cp.11_1                            0x0000223c   Number         4  cw32l010_rtc.o(.text.RTC_SetAlarm)
    __arm_cp.11_3                            0x00002240   Number         4  cw32l010_rtc.o(.text.RTC_SetAlarm)
    __arm_cp.11_4                            0x00002244   Number         4  cw32l010_rtc.o(.text.RTC_SetAlarm)
    [Anonymous Symbol]                       0x00002248   Section        0  cw32l010_rtc.o(.text.RTC_SetClockSource)
    __arm_cp.3_0                             0x00002290   Number         4  cw32l010_rtc.o(.text.RTC_SetClockSource)
    [Anonymous Symbol]                       0x00002294   Section        0  cw32l010_rtc.o(.text.RTC_SetDate)
    __arm_cp.4_1                             0x000022f4   Number         4  cw32l010_rtc.o(.text.RTC_SetDate)
    [Anonymous Symbol]                       0x000022f8   Section        0  cw32l010_rtc.o(.text.RTC_SetTime)
    __arm_cp.5_0                             0x000023ac   Number         4  cw32l010_rtc.o(.text.RTC_SetTime)
    __arm_cp.5_1                             0x000023b0   Number         4  cw32l010_rtc.o(.text.RTC_SetTime)
    __arm_cp.5_2                             0x000023b4   Number         4  cw32l010_rtc.o(.text.RTC_SetTime)
    __arm_cp.5_3                             0x000023b8   Number         4  cw32l010_rtc.o(.text.RTC_SetTime)
    [Anonymous Symbol]                       0x000023bc   Section        0  cw32l010_systick.o(.text.ResumeTick)
    __arm_cp.6_0                             0x000023c8   Number         4  cw32l010_systick.o(.text.ResumeTick)
    [Anonymous Symbol]                       0x000023cc   Section        0  interrupts_cw32l010.o(.text.SPI1_IRQHandler)
    [Anonymous Symbol]                       0x000023ce   Section        0  interrupts_cw32l010.o(.text.SVC_Handler)
    [Anonymous Symbol]                       0x000023d0   Section        0  cw32l010_sysctrl.o(.text.SYSCTRL_AHBPeriphClk_Enable)
    __arm_cp.28_0                            0x00002404   Number         4  cw32l010_sysctrl.o(.text.SYSCTRL_AHBPeriphClk_Enable)
    [Anonymous Symbol]                       0x00002408   Section        0  cw32l010_sysctrl.o(.text.SYSCTRL_AHBPeriphReset)
    __arm_cp.31_0                            0x00002434   Number         4  cw32l010_sysctrl.o(.text.SYSCTRL_AHBPeriphReset)
    [Anonymous Symbol]                       0x00002438   Section        0  cw32l010_sysctrl.o(.text.SYSCTRL_APBPeriphClk_Enable1)
    __arm_cp.29_0                            0x0000246c   Number         4  cw32l010_sysctrl.o(.text.SYSCTRL_APBPeriphClk_Enable1)
    [Anonymous Symbol]                       0x00002470   Section        0  cw32l010_sysctrl.o(.text.SYSCTRL_APBPeriphReset1)
    __arm_cp.32_0                            0x0000249c   Number         4  cw32l010_sysctrl.o(.text.SYSCTRL_APBPeriphReset1)
    [Anonymous Symbol]                       0x000024a0   Section        0  cw32l010_sysctrl.o(.text.SYSCTRL_ClearRstFlag)
    __arm_cp.36_0                            0x000024b4   Number         4  cw32l010_sysctrl.o(.text.SYSCTRL_ClearRstFlag)
    [Anonymous Symbol]                       0x000024b8   Section        0  cw32l010_sysctrl.o(.text.SYSCTRL_GetHClkFreq)
    __arm_cp.4_2                             0x0000254c   Number         4  cw32l010_sysctrl.o(.text.SYSCTRL_GetHClkFreq)
    __arm_cp.4_3                             0x00002550   Number         4  cw32l010_sysctrl.o(.text.SYSCTRL_GetHClkFreq)
    __arm_cp.4_4                             0x00002554   Number         4  cw32l010_sysctrl.o(.text.SYSCTRL_GetHClkFreq)
    __arm_cp.4_5                             0x00002558   Number         4  cw32l010_sysctrl.o(.text.SYSCTRL_GetHClkFreq)
    [Anonymous Symbol]                       0x0000255c   Section        0  cw32l010_sysctrl.o(.text.SYSCTRL_GotoDeepSleep)
    __arm_cp.40_0                            0x00002570   Number         4  cw32l010_sysctrl.o(.text.SYSCTRL_GotoDeepSleep)
    [Anonymous Symbol]                       0x00002574   Section        0  cw32l010_sysctrl.o(.text.SYSCTRL_HSI_Enable)
    __arm_cp.12_2                            0x0000260c   Number         4  cw32l010_sysctrl.o(.text.SYSCTRL_HSI_Enable)
    __arm_cp.12_3                            0x00002610   Number         4  cw32l010_sysctrl.o(.text.SYSCTRL_HSI_Enable)
    __arm_cp.12_6                            0x00002614   Number         4  cw32l010_sysctrl.o(.text.SYSCTRL_HSI_Enable)
    __arm_cp.12_8                            0x00002618   Number         4  cw32l010_sysctrl.o(.text.SYSCTRL_HSI_Enable)
    [Anonymous Symbol]                       0x0000261c   Section        0  interrupts_cw32l010.o(.text.SYSCTRL_IRQHandler)
    [Anonymous Symbol]                       0x00002620   Section        0  cw32l010_sysctrl.o(.text.SYSCTRL_LSI_Enable)
    __arm_cp.14_0                            0x00002698   Number         4  cw32l010_sysctrl.o(.text.SYSCTRL_LSI_Enable)
    __arm_cp.14_4                            0x0000269c   Number         4  cw32l010_sysctrl.o(.text.SYSCTRL_LSI_Enable)
    __arm_cp.14_5                            0x000026a0   Number         4  cw32l010_sysctrl.o(.text.SYSCTRL_LSI_Enable)
    [Anonymous Symbol]                       0x000026a4   Section        0  cw32l010_sysctrl.o(.text.SYSCTRL_SysClk_Switch)
    __arm_cp.22_0                            0x000027a4   Number         4  cw32l010_sysctrl.o(.text.SYSCTRL_SysClk_Switch)
    __arm_cp.22_1                            0x000027a8   Number         4  cw32l010_sysctrl.o(.text.SYSCTRL_SysClk_Switch)
    __arm_cp.22_2                            0x000027ac   Number         4  cw32l010_sysctrl.o(.text.SYSCTRL_SysClk_Switch)
    __arm_cp.22_3                            0x000027b0   Number         4  cw32l010_sysctrl.o(.text.SYSCTRL_SysClk_Switch)
    [Anonymous Symbol]                       0x000027b4   Section        0  cw32l010_sysctrl.o(.text.SYSCTRL_SystemCoreClockUpdate)
    [Anonymous Symbol]                       0x000027c4   Section        0  cw32l010_systick.o(.text.SuspendTick)
    [Anonymous Symbol]                       0x000027d0   Section        0  cw32l010_systick.o(.text.SysTickDelay)
    SysTick_Config                           0x00002811   Thumb Code    68  cw32l010_systick.o(.text.SysTick_Config)
    [Anonymous Symbol]                       0x00002810   Section        0  cw32l010_systick.o(.text.SysTick_Config)
    __arm_cp.1_0                             0x00002854   Number         4  cw32l010_systick.o(.text.SysTick_Config)
    __arm_cp.1_1                             0x00002858   Number         4  cw32l010_systick.o(.text.SysTick_Config)
    __arm_cp.1_2                             0x0000285c   Number         4  cw32l010_systick.o(.text.SysTick_Config)
    [Anonymous Symbol]                       0x00002860   Section        0  main.o(.text.SysTick_Handler)
    __arm_cp.1_0                             0x00002874   Number         4  main.o(.text.SysTick_Handler)
    __arm_cp.1_1                             0x00002878   Number         4  main.o(.text.SysTick_Handler)
    [Anonymous Symbol]                       0x0000287c   Section        0  system_cw32l010.o(.text.SystemCoreClockUpdate)
    __arm_cp.0_0                             0x00002884   Number         4  system_cw32l010.o(.text.SystemCoreClockUpdate)
    __arm_cp.0_1                             0x00002888   Number         4  system_cw32l010.o(.text.SystemCoreClockUpdate)
    [Anonymous Symbol]                       0x0000288c   Section        0  system_cw32l010.o(.text.SystemInit)
    __arm_cp.1_0                             0x000028bc   Number         4  system_cw32l010.o(.text.SystemInit)
    __arm_cp.1_1                             0x000028c0   Number         4  system_cw32l010.o(.text.SystemInit)
    __arm_cp.1_2                             0x000028c4   Number         4  system_cw32l010.o(.text.SystemInit)
    __arm_cp.1_3                             0x000028c8   Number         4  system_cw32l010.o(.text.SystemInit)
    __arm_cp.1_4                             0x000028cc   Number         4  system_cw32l010.o(.text.SystemInit)
    __arm_cp.1_5                             0x000028d0   Number         4  system_cw32l010.o(.text.SystemInit)
    __arm_cp.1_6                             0x000028d4   Number         4  system_cw32l010.o(.text.SystemInit)
    __arm_cp.1_7                             0x000028d8   Number         4  system_cw32l010.o(.text.SystemInit)
    [Anonymous Symbol]                       0x000028dc   Section        0  cw32l010_uart.o(.text.UART1_DeInit)
    [Anonymous Symbol]                       0x000028f0   Section        0  bsp_uart.o(.text.UART1_IRQHandler)
    __arm_cp.4_0                             0x00002a3c   Number         4  bsp_uart.o(.text.UART1_IRQHandler)
    __arm_cp.4_1                             0x00002a40   Number         4  bsp_uart.o(.text.UART1_IRQHandler)
    __arm_cp.4_2                             0x00002a44   Number         4  bsp_uart.o(.text.UART1_IRQHandler)
    __arm_cp.4_3                             0x00002a48   Number         4  bsp_uart.o(.text.UART1_IRQHandler)
    [Anonymous Symbol]                       0x00002a4c   Section        0  cw32l010_uart.o(.text.UART2_DeInit)
    __arm_cp.11_0                            0x00002a60   Number         4  cw32l010_uart.o(.text.UART2_DeInit)
    [Anonymous Symbol]                       0x00002a64   Section        0  bsp_4g_driver.o(.text.UART2_IRQHandler)
    __arm_cp.4_0                             0x00002bc8   Number         4  bsp_4g_driver.o(.text.UART2_IRQHandler)
    __arm_cp.4_1                             0x00002bcc   Number         4  bsp_4g_driver.o(.text.UART2_IRQHandler)
    __arm_cp.4_2                             0x00002bd0   Number         4  bsp_4g_driver.o(.text.UART2_IRQHandler)
    __arm_cp.4_3                             0x00002bd4   Number         4  bsp_4g_driver.o(.text.UART2_IRQHandler)
    [Anonymous Symbol]                       0x00002bd8   Section        0  cw32l010_uart.o(.text.UART_ClearITPendingBit)
    [Anonymous Symbol]                       0x00002bee   Section        0  cw32l010_uart.o(.text.UART_GetFlagStatus)
    [Anonymous Symbol]                       0x00002c0c   Section        0  cw32l010_uart.o(.text.UART_GetITStatus)
    [Anonymous Symbol]                       0x00002c2a   Section        0  cw32l010_uart.o(.text.UART_ITConfig)
    [Anonymous Symbol]                       0x00002c60   Section        0  cw32l010_uart.o(.text.UART_Init)
    __arm_cp.6_0                             0x00002e64   Number         4  cw32l010_uart.o(.text.UART_Init)
    __arm_cp.6_1                             0x00002e68   Number         4  cw32l010_uart.o(.text.UART_Init)
    __arm_cp.6_2                             0x00002e6c   Number         4  cw32l010_uart.o(.text.UART_Init)
    __arm_cp.6_3                             0x00002e70   Number         4  cw32l010_uart.o(.text.UART_Init)
    __arm_cp.6_4                             0x00002e74   Number         4  cw32l010_uart.o(.text.UART_Init)
    __arm_cp.6_5                             0x00002e78   Number         4  cw32l010_uart.o(.text.UART_Init)
    __arm_cp.6_6                             0x00002e7c   Number         4  cw32l010_uart.o(.text.UART_Init)
    __arm_cp.6_7                             0x00002e80   Number         4  cw32l010_uart.o(.text.UART_Init)
    [Anonymous Symbol]                       0x00002e84   Section        0  cw32l010_uart.o(.text.UART_ReceiveData_8bit)
    [Anonymous Symbol]                       0x00002e92   Section        0  cw32l010_uart.o(.text.UART_SendData_8bit)
    [Anonymous Symbol]                       0x00002ea4   Section        0  interrupts_cw32l010.o(.text.VC1_IRQHandler)
    [Anonymous Symbol]                       0x00002ea6   Section        0  interrupts_cw32l010.o(.text.VC2_IRQHandler)
    [Anonymous Symbol]                       0x00002ea8   Section        0  interrupts_cw32l010.o(.text.WDT_IRQHandler)
    __NVIC_DisableIRQ                        0x00002ead   Thumb Code    48  bsp_rtc.o(.text.__NVIC_DisableIRQ)
    [Anonymous Symbol]                       0x00002eac   Section        0  bsp_rtc.o(.text.__NVIC_DisableIRQ)
    __arm_cp.6_0                             0x00002edc   Number         4  bsp_rtc.o(.text.__NVIC_DisableIRQ)
    __NVIC_EnableIRQ                         0x00002ee1   Thumb Code    40  bsp_rtc.o(.text.__NVIC_EnableIRQ)
    [Anonymous Symbol]                       0x00002ee0   Section        0  bsp_rtc.o(.text.__NVIC_EnableIRQ)
    __NVIC_EnableIRQ                         0x00002f09   Thumb Code    40  bsp_uart.o(.text.__NVIC_EnableIRQ)
    [Anonymous Symbol]                       0x00002f08   Section        0  bsp_uart.o(.text.__NVIC_EnableIRQ)
    __NVIC_EnableIRQ                         0x00002f31   Thumb Code    40  bsp_4g_driver.o(.text.__NVIC_EnableIRQ)
    [Anonymous Symbol]                       0x00002f30   Section        0  bsp_4g_driver.o(.text.__NVIC_EnableIRQ)
    __arm_cp.3_0                             0x00002f58   Number         4  bsp_4g_driver.o(.text.__NVIC_EnableIRQ)
    __NVIC_SetPriority                       0x00002f5d   Thumb Code   124  bsp_rtc.o(.text.__NVIC_SetPriority)
    [Anonymous Symbol]                       0x00002f5c   Section        0  bsp_rtc.o(.text.__NVIC_SetPriority)
    __NVIC_SetPriority                       0x00002fd9   Thumb Code   124  bsp_uart.o(.text.__NVIC_SetPriority)
    [Anonymous Symbol]                       0x00002fd8   Section        0  bsp_uart.o(.text.__NVIC_SetPriority)
    __NVIC_SetPriority                       0x00003055   Thumb Code   124  cw32l010_systick.o(.text.__NVIC_SetPriority)
    [Anonymous Symbol]                       0x00003054   Section        0  cw32l010_systick.o(.text.__NVIC_SetPriority)
    __NVIC_SetPriority                       0x000030d1   Thumb Code   124  bsp_4g_driver.o(.text.__NVIC_SetPriority)
    [Anonymous Symbol]                       0x000030d0   Section        0  bsp_4g_driver.o(.text.__NVIC_SetPriority)
    __arm_cp.2_0                             0x0000314c   Number         4  bsp_4g_driver.o(.text.__NVIC_SetPriority)
    __arm_cp.2_1                             0x00003150   Number         4  bsp_4g_driver.o(.text.__NVIC_SetPriority)
    [Anonymous Symbol]                       0x00003154   Section        0  bsp_adc.o(.text.bsp_adc_init)
    __arm_cp.0_0                             0x0000319c   Number         4  bsp_adc.o(.text.bsp_adc_init)
    __arm_cp.0_1                             0x000031a0   Number         4  bsp_adc.o(.text.bsp_adc_init)
    [Anonymous Symbol]                       0x000031a4   Section        0  main.o(.text.bsp_closeAllPeriphCLK)
    __arm_cp.2_0                             0x00003274   Number         4  main.o(.text.bsp_closeAllPeriphCLK)
    __arm_cp.2_1                             0x00003278   Number         4  main.o(.text.bsp_closeAllPeriphCLK)
    __arm_cp.2_3                             0x0000327c   Number         4  main.o(.text.bsp_closeAllPeriphCLK)
    [Anonymous Symbol]                       0x00003280   Section        0  bsp_flash.o(.text.bsp_flash_init)
    [Anonymous Symbol]                       0x00003294   Section        0  bsp_flash.o(.text.bsp_flash_page_erase)
    [Anonymous Symbol]                       0x000032da   Section        0  bsp_flash.o(.text.bsp_flash_page_write)
    [Anonymous Symbol]                       0x0000332c   Section        0  bsp_gpio.o(.text.bsp_gpio_init)
    __arm_cp.0_0                             0x00003388   Number         4  bsp_gpio.o(.text.bsp_gpio_init)
    __arm_cp.0_1                             0x0000338c   Number         4  bsp_gpio.o(.text.bsp_gpio_init)
    __arm_cp.0_2                             0x00003390   Number         4  bsp_gpio.o(.text.bsp_gpio_init)
    [Anonymous Symbol]                       0x00003394   Section        0  bsp_rtc.o(.text.bsp_rtc_init)
    __arm_cp.0_1                             0x00003430   Number         4  bsp_rtc.o(.text.bsp_rtc_init)
    __arm_cp.0_2                             0x00003434   Number         4  bsp_rtc.o(.text.bsp_rtc_init)
    [Anonymous Symbol]                       0x00003438   Section        0  bsp_rtc.o(.text.bsp_setRTC_AutoWakeup)
    __arm_cp.7_0                             0x00003460   Number         4  bsp_rtc.o(.text.bsp_setRTC_AutoWakeup)
    [Anonymous Symbol]                       0x00003464   Section        0  bsp_rtc.o(.text.bsp_setRTC_Close)
    __arm_cp.5_0                             0x000034a0   Number         4  bsp_rtc.o(.text.bsp_setRTC_Close)
    __arm_cp.5_1                             0x000034a4   Number         4  bsp_rtc.o(.text.bsp_setRTC_Close)
    [Anonymous Symbol]                       0x000034a8   Section        0  bsp_uart.o(.text.bsp_uart_init)
    __arm_cp.1_1                             0x00003580   Number         4  bsp_uart.o(.text.bsp_uart_init)
    __arm_cp.1_2                             0x00003584   Number         4  bsp_uart.o(.text.bsp_uart_init)
    __arm_cp.1_3                             0x00003588   Number         4  bsp_uart.o(.text.bsp_uart_init)
    __arm_cp.1_4                             0x0000358c   Number         4  bsp_uart.o(.text.bsp_uart_init)
    __arm_cp.1_5                             0x00003590   Number         4  bsp_uart.o(.text.bsp_uart_init)
    __arm_cp.1_6                             0x00003594   Number         4  bsp_uart.o(.text.bsp_uart_init)
    __arm_cp.1_7                             0x00003598   Number         4  bsp_uart.o(.text.bsp_uart_init)
    [Anonymous Symbol]                       0x0000359c   Section        0  main.o(.text.bsp_userTips_handler)
    __arm_cp.0_0                             0x00003658   Number         4  main.o(.text.bsp_userTips_handler)
    __arm_cp.0_1                             0x0000365c   Number         4  main.o(.text.bsp_userTips_handler)
    __arm_cp.0_2                             0x00003660   Number         4  main.o(.text.bsp_userTips_handler)
    __arm_cp.0_3                             0x00003664   Number         4  main.o(.text.bsp_userTips_handler)
    __arm_cp.0_4                             0x00003668   Number         4  main.o(.text.bsp_userTips_handler)
    __arm_cp.0_5                             0x0000366c   Number         4  main.o(.text.bsp_userTips_handler)
    __arm_cp.0_6                             0x00003670   Number         4  main.o(.text.bsp_userTips_handler)
    __arm_cp.0_7                             0x00003674   Number         4  main.o(.text.bsp_userTips_handler)
    __arm_cp.0_8                             0x00003678   Number         4  main.o(.text.bsp_userTips_handler)
    [Anonymous Symbol]                       0x0000367c   Section        0  defultparameter.o(.text.crc16)
    __arm_cp.0_0                             0x000036e4   Number         4  defultparameter.o(.text.crc16)
    [Anonymous Symbol]                       0x000036e8   Section        0  defultparameter.o(.text.device_factory_test)
    __arm_cp.1_0                             0x000037e4   Number         4  defultparameter.o(.text.device_factory_test)
    __arm_cp.1_1                             0x000037e8   Number         4  defultparameter.o(.text.device_factory_test)
    __arm_cp.1_2                             0x000037ec   Number         4  defultparameter.o(.text.device_factory_test)
    __arm_cp.1_3                             0x000037f0   Number         4  defultparameter.o(.text.device_factory_test)
    __arm_cp.1_4                             0x000037f4   Number         4  defultparameter.o(.text.device_factory_test)
    __arm_cp.1_5                             0x000037f8   Number         4  defultparameter.o(.text.device_factory_test)
    __arm_cp.1_6                             0x000037fc   Number         4  defultparameter.o(.text.device_factory_test)
    __arm_cp.1_7                             0x00003800   Number         4  defultparameter.o(.text.device_factory_test)
    __arm_cp.1_8                             0x00003804   Number         4  defultparameter.o(.text.device_factory_test)
    __arm_cp.1_9                             0x00003808   Number         4  defultparameter.o(.text.device_factory_test)
    __arm_cp.1_10                            0x0000380c   Number         4  defultparameter.o(.text.device_factory_test)
    __arm_cp.1_11                            0x00003810   Number         4  defultparameter.o(.text.device_factory_test)
    __arm_cp.1_12                            0x00003814   Number         4  defultparameter.o(.text.device_factory_test)
    [Anonymous Symbol]                       0x00003818   Section        0  bsp_4g_task.o(.text.driver_4Gmoudle_data_trans_sta)
    [Anonymous Symbol]                       0x00003850   Section        0  bsp_4g_task.o(.text.driver_4Gmoudle_init)
    __arm_cp.0_1                             0x000038b4   Number         4  bsp_4g_task.o(.text.driver_4Gmoudle_init)
    __arm_cp.0_2                             0x000038b8   Number         4  bsp_4g_task.o(.text.driver_4Gmoudle_init)
    __arm_cp.0_3                             0x000038bc   Number         4  bsp_4g_task.o(.text.driver_4Gmoudle_init)
    [Anonymous Symbol]                       0x000038c0   Section        0  bsp_4g_task.o(.text.driver_4Gmoudle_net_connecting)
    [Anonymous Symbol]                       0x000038e8   Section        0  bsp_4g_task.o(.text.driver_4Gmoudle_netsta)
    __arm_cp.3_0                             0x00003910   Number         4  bsp_4g_task.o(.text.driver_4Gmoudle_netsta)
    [Anonymous Symbol]                       0x00003914   Section        0  bsp_uart.o(.text.fputc)
    [Anonymous Symbol]                       0x00003940   Section        0  bsp_adc.o(.text.get_adc_value)
    __arm_cp.1_0                             0x000039a0   Number         4  bsp_adc.o(.text.get_adc_value)
    __arm_cp.1_1                             0x000039a4   Number         4  bsp_adc.o(.text.get_adc_value)
    __arm_cp.1_2                             0x000039a8   Number         4  bsp_adc.o(.text.get_adc_value)
    [Anonymous Symbol]                       0x000039ac   Section        0  msg_package.o(.text.get_devinfo_SN)
    __arm_cp.2_0                             0x00003a08   Number         4  msg_package.o(.text.get_devinfo_SN)
    __arm_cp.2_1                             0x00003a0c   Number         4  msg_package.o(.text.get_devinfo_SN)
    [Anonymous Symbol]                       0x00003a10   Section        0  main.o(.text.main)
    __arm_cp.3_1                             0x00003b68   Number         4  main.o(.text.main)
    __arm_cp.3_2                             0x00003b6c   Number         4  main.o(.text.main)
    __arm_cp.3_3                             0x00003b70   Number         4  main.o(.text.main)
    __arm_cp.3_4                             0x00003b74   Number         4  main.o(.text.main)
    __arm_cp.3_5                             0x00003b78   Number         4  main.o(.text.main)
    __arm_cp.3_6                             0x00003b7c   Number         4  main.o(.text.main)
    __arm_cp.3_7                             0x00003b80   Number         4  main.o(.text.main)
    __arm_cp.3_8                             0x00003b84   Number         4  main.o(.text.main)
    __arm_cp.3_9                             0x00003b88   Number         4  main.o(.text.main)
    __arm_cp.3_10                            0x00003b8c   Number         4  main.o(.text.main)
    [Anonymous Symbol]                       0x00003b90   Section        0  bsp_uart.o(.text.uart_send_string)
    __arm_cp.0_0                             0x00003bf0   Number         4  bsp_uart.o(.text.uart_send_string)
    __arm_cp.0_1                             0x00003bf4   Number         4  bsp_uart.o(.text.uart_send_string)
    [Anonymous Symbol]                       0x00003bf8   Section        0  bsp_4g_driver.o(.text.usart_4g_init)
    __arm_cp.1_0                             0x00003cc8   Number         4  bsp_4g_driver.o(.text.usart_4g_init)
    __arm_cp.1_1                             0x00003ccc   Number         4  bsp_4g_driver.o(.text.usart_4g_init)
    __arm_cp.1_2                             0x00003cd0   Number         4  bsp_4g_driver.o(.text.usart_4g_init)
    __arm_cp.1_3                             0x00003cd4   Number         4  bsp_4g_driver.o(.text.usart_4g_init)
    __arm_cp.1_4                             0x00003cd8   Number         4  bsp_4g_driver.o(.text.usart_4g_init)
    __arm_cp.1_5                             0x00003cdc   Number         4  bsp_4g_driver.o(.text.usart_4g_init)
    __arm_cp.1_6                             0x00003ce0   Number         4  bsp_4g_driver.o(.text.usart_4g_init)
    __arm_cp.1_7                             0x00003ce4   Number         4  bsp_4g_driver.o(.text.usart_4g_init)
    i.__0printf                              0x00003ce8   Section        0  printfa.o(i.__0printf)
    i.__0snprintf                            0x00003d08   Section        0  printfa.o(i.__0snprintf)
    i.__ARM_clz                              0x00003d40   Section        0  depilogue.o(i.__ARM_clz)
    i.__scatterload_copy                     0x00003d6e   Section       14  handlers.o(i.__scatterload_copy)
    i.__scatterload_null                     0x00003d7c   Section        2  handlers.o(i.__scatterload_null)
    i.__scatterload_zeroinit                 0x00003d7e   Section       14  handlers.o(i.__scatterload_zeroinit)
    _fp_digits                               0x00003d8d   Thumb Code   344  printfa.o(i._fp_digits)
    i._fp_digits                             0x00003d8c   Section        0  printfa.o(i._fp_digits)
    i._is_digit                              0x00003f00   Section        0  scanf_fp.o(i._is_digit)
    _printf_core                             0x00003f11   Thumb Code  1754  printfa.o(i._printf_core)
    i._printf_core                           0x00003f10   Section        0  printfa.o(i._printf_core)
    _printf_post_padding                     0x000045fd   Thumb Code    32  printfa.o(i._printf_post_padding)
    i._printf_post_padding                   0x000045fc   Section        0  printfa.o(i._printf_post_padding)
    _printf_pre_padding                      0x0000461d   Thumb Code    44  printfa.o(i._printf_pre_padding)
    i._printf_pre_padding                    0x0000461c   Section        0  printfa.o(i._printf_pre_padding)
    _snputc                                  0x00004649   Thumb Code    22  printfa.o(i._snputc)
    i._snputc                                0x00004648   Section        0  printfa.o(i._snputc)
    .constdata                               0x0000465e   Section      129  ctype_o.o(.constdata)
    table                                    0x000046e0   Data           4  ctype_o.o(.constdata)
    .constdata                               0x000046e0   Section        4  ctype_o.o(.constdata)
    [Anonymous Symbol]                       0x000046e4   Section        0  main.o(.rodata.cst16)
    [Anonymous Symbol]                       0x00004734   Section        0  main.o(.rodata.str1.1)
    [Anonymous Symbol]                       0x00004797   Section        0  msg_package.o(.rodata.str1.1)
    [Anonymous Symbol]                       0x000047bf   Section        0  defultparameter.o(.rodata.str1.1)
    .data                                    0x20000000   Section        4  stdout.o(.data)
    bsp_userTips_handler.rrr                 0x20000010   Data           4  main.o(.bss.bsp_userTips_handler.rrr)
    [Anonymous Symbol]                       0x20000010   Section        0  main.o(.bss.bsp_userTips_handler.rrr)
    STACK                                    0x200002d8   Section     1024  startup_cw32l010.o(STACK)

    Global Symbols

    Symbol Name                              Value     Ov Type        Size  Object(Section)

    BuildAttributes$$THM_ISAv3M$S$PE$A:L22$X:L11$S22$IEEE1$IW$~IW$USESV6$~STKCKD$USESV7$~SHL$OTIME$ROPI$IEEEJ$EBA8$MICROLIB$REQ8$PRES8$EABIv2 0x00000000   Number         0  anon$$obj.o ABSOLUTE
    __Vectors                                0x00000000   Data           0  startup_cw32l010.o(RESET)
    __cpp_initialize__aeabi_                  - Undefined Weak Reference
    __cxa_finalize                            - Undefined Weak Reference
    __decompress                              - Undefined Weak Reference
    _clock_init                               - Undefined Weak Reference
    _microlib_exit                            - Undefined Weak Reference
    __Vectors_End                            0x000000c0   Data           0  startup_cw32l010.o(RESET)
    __Vectors_Size                           0x000000c0   Number         0  startup_cw32l010.o ABSOLUTE
    __main                                   0x000000c1   Thumb Code     0  entry.o(.ARM.Collect$$$$00000000)
    _main_stk                                0x000000c1   Thumb Code     0  entry2.o(.ARM.Collect$$$$00000001)
    _main_scatterload                        0x000000c5   Thumb Code     0  entry5.o(.ARM.Collect$$$$00000004)
    __main_after_scatterload                 0x000000c9   Thumb Code     0  entry5.o(.ARM.Collect$$$$00000004)
    _main_clock                              0x000000c9   Thumb Code     0  entry7b.o(.ARM.Collect$$$$00000008)
    _main_cpp_init                           0x000000c9   Thumb Code     0  entry8b.o(.ARM.Collect$$$$0000000A)
    _main_init                               0x000000c9   Thumb Code     0  entry9a.o(.ARM.Collect$$$$0000000B)
    __rt_final_cpp                           0x000000d1   Thumb Code     0  entry10a.o(.ARM.Collect$$$$0000000D)
    __rt_final_exit                          0x000000d1   Thumb Code     0  entry11a.o(.ARM.Collect$$$$0000000F)
    Reset_Handler                            0x000000d5   Thumb Code    14  startup_cw32l010.o(.text)
    PendSV_Handler                           0x000000e9   Thumb Code     2  startup_cw32l010.o(.text)
    __aeabi_uldivmod                         0x000000fd   Thumb Code    96  uldiv.o(.text)
    __aeabi_memcpy                           0x0000015d   Thumb Code    36  memcpya.o(.text)
    __aeabi_memcpy4                          0x0000015d   Thumb Code     0  memcpya.o(.text)
    __aeabi_memcpy8                          0x0000015d   Thumb Code     0  memcpya.o(.text)
    __aeabi_memset                           0x00000181   Thumb Code    14  memseta.o(.text)
    __aeabi_memset4                          0x00000181   Thumb Code     0  memseta.o(.text)
    __aeabi_memset8                          0x00000181   Thumb Code     0  memseta.o(.text)
    __aeabi_memclr                           0x0000018f   Thumb Code     4  memseta.o(.text)
    __aeabi_memclr4                          0x0000018f   Thumb Code     0  memseta.o(.text)
    __aeabi_memclr8                          0x0000018f   Thumb Code     0  memseta.o(.text)
    _memset$wrapper                          0x00000193   Thumb Code    18  memseta.o(.text)
    strstr                                   0x000001a5   Thumb Code    40  strstr.o(.text)
    strlen                                   0x000001cd   Thumb Code    14  strlen.o(.text)
    sscanf                                   0x000001dd   Thumb Code    50  sscanf.o(.text)
    __aeabi_fadd                             0x00000219   Thumb Code   162  fadd.o(.text)
    __aeabi_fsub                             0x000002bb   Thumb Code     8  fadd.o(.text)
    __aeabi_frsub                            0x000002c3   Thumb Code     8  fadd.o(.text)
    __aeabi_fmul                             0x000002cb   Thumb Code   122  fmul.o(.text)
    __aeabi_fdiv                             0x00000345   Thumb Code   124  fdiv.o(.text)
    __aeabi_dadd                             0x000003c1   Thumb Code   328  dadd.o(.text)
    __aeabi_dsub                             0x00000509   Thumb Code    12  dadd.o(.text)
    __aeabi_drsub                            0x00000515   Thumb Code    12  dadd.o(.text)
    __aeabi_dmul                             0x00000525   Thumb Code   202  dmul.o(.text)
    __aeabi_i2f                              0x000005f5   Thumb Code    22  fflti.o(.text)
    __aeabi_ui2f                             0x0000060b   Thumb Code    14  ffltui.o(.text)
    __aeabi_f2iz                             0x00000619   Thumb Code    50  ffixi.o(.text)
    __aeabi_d2iz                             0x0000064d   Thumb Code    62  dfixi.o(.text)
    __aeabi_f2d                              0x00000695   Thumb Code    40  f2d.o(.text)
    __aeabi_d2f                              0x000006bd   Thumb Code    56  d2f.o(.text)
    __aeabi_uidiv                            0x000006f5   Thumb Code     0  uidiv_div0.o(.text)
    __aeabi_uidivmod                         0x000006f5   Thumb Code    62  uidiv_div0.o(.text)
    __aeabi_llsl                             0x00000733   Thumb Code    32  llshl.o(.text)
    _ll_shift_l                              0x00000733   Thumb Code     0  llshl.o(.text)
    __aeabi_llsr                             0x00000753   Thumb Code    34  llushr.o(.text)
    _ll_ushift_r                             0x00000753   Thumb Code     0  llushr.o(.text)
    __aeabi_lasr                             0x00000775   Thumb Code    38  llsshr.o(.text)
    _ll_sshift_r                             0x00000775   Thumb Code     0  llsshr.o(.text)
    _scanf_longlong                          0x0000079b   Thumb Code   330  _scanf_longlong.o(.text)
    _scanf_int                               0x000008e5   Thumb Code   330  _scanf_int.o(.text)
    _scanf_string                            0x00000a2f   Thumb Code   232  _scanf_str.o(.text)
    _scanf_real                              0x00000c37   Thumb Code     0  scanf_fp.o(.text)
    _scanf_really_real                       0x00000c37   Thumb Code   584  scanf_fp.o(.text)
    __vfscanf_char                           0x00000e99   Thumb Code    24  scanf_char.o(.text)
    _sgetc                                   0x00000eb9   Thumb Code    32  _sgetc.o(.text)
    _sbackspace                              0x00000ed9   Thumb Code    36  _sgetc.o(.text)
    __I$use$fp                               0x00000efd   Thumb Code     0  iusefp.o(.text)
    _float_round                             0x00000efd   Thumb Code    16  fepilogue.o(.text)
    _float_epilogue                          0x00000f0d   Thumb Code   114  fepilogue.o(.text)
    _double_round                            0x00000f7f   Thumb Code    26  depilogue.o(.text)
    _double_epilogue                         0x00000f99   Thumb Code   164  depilogue.o(.text)
    __aeabi_ddiv                             0x0000103d   Thumb Code   234  ddiv.o(.text)
    __aeabi_d2ulz                            0x0000112d   Thumb Code    54  dfixul.o(.text)
    __aeabi_cdrcmple                         0x0000116d   Thumb Code    38  cdrcmple.o(.text)
    __scatterload                            0x00001195   Thumb Code    28  init.o(.text)
    __scatterload_rt2                        0x00001195   Thumb Code     0  init.o(.text)
    __aeabi_lmul                             0x000011b9   Thumb Code    48  llmul.o(.text)
    _ll_mul                                  0x000011b9   Thumb Code     0  llmul.o(.text)
    __rt_ctype_table                         0x000011e9   Thumb Code     4  ctype_o.o(.text)
    isspace                                  0x000011f1   Thumb Code    18  isspace_o.o(.text)
    _chval                                   0x00001203   Thumb Code    30  _chval.o(.text)
    __vfscanf                                0x00001221   Thumb Code   812  _scanf.o(.text)
    __aeabi_ul2d                             0x00001559   Thumb Code    22  dfltul.o(.text)
    ADC_ClearITPendingAll                    0x00001575   Thumb Code     8  cw32l010_adc.o(.text.ADC_ClearITPendingAll)
    ADC_ClearITPendingBit                    0x0000157d   Thumb Code    24  cw32l010_adc.o(.text.ADC_ClearITPendingBit)
    ADC_DeInit                               0x00001599   Thumb Code    20  cw32l010_adc.o(.text.ADC_DeInit)
    ADC_Disable                              0x000015b1   Thumb Code    12  cw32l010_adc.o(.text.ADC_Disable)
    ADC_Enable                               0x000015bd   Thumb Code    12  cw32l010_adc.o(.text.ADC_Enable)
    ADC_GetConversionValue                   0x000015c9   Thumb Code    20  cw32l010_adc.o(.text.ADC_GetConversionValue)
    ADC_IRQHandler                           0x000015e1   Thumb Code     2  interrupts_cw32l010.o(.text.ADC_IRQHandler)
    ADC_Init                                 0x000015e5   Thumb Code   352  cw32l010_adc.o(.text.ADC_Init)
    ADC_SoftwareStartConvCmd                 0x00001769   Thumb Code    44  cw32l010_adc.o(.text.ADC_SoftwareStartConvCmd)
    ATIM_IRQHandler                          0x00001799   Thumb Code     2  interrupts_cw32l010.o(.text.ATIM_IRQHandler)
    BTIM1_IRQHandler                         0x0000179d   Thumb Code    28  bsp_tim.o(.text.BTIM1_IRQHandler)
    BTIM2_IRQHandler                         0x000017bd   Thumb Code     2  interrupts_cw32l010.o(.text.BTIM2_IRQHandler)
    BTIM3_IRQHandler                         0x000017bf   Thumb Code     2  interrupts_cw32l010.o(.text.BTIM3_IRQHandler)
    BTIM_ClearITPendingBit                   0x000017c1   Thumb Code    22  cw32l010_btim.o(.text.BTIM_ClearITPendingBit)
    BTIM_GetITStatus                         0x000017d7   Thumb Code    30  cw32l010_btim.o(.text.BTIM_GetITStatus)
    CLKFAULT_IRQHandler                      0x000017f5   Thumb Code     2  interrupts_cw32l010.o(.text.CLKFAULT_IRQHandler)
    Device_4G_Task                           0x000017f7   Thumb Code    14  bsp_4g_task.o(.text.Device_4G_Task)
    FLASHRAM_IRQHandler                      0x00001805   Thumb Code     2  interrupts_cw32l010.o(.text.FLASHRAM_IRQHandler)
    FLASH_ErasePage                          0x00001809   Thumb Code   136  cw32l010_flash.o(.text.FLASH_ErasePage)
    FLASH_LockAllPages                       0x00001891   Thumb Code     8  cw32l010_flash.o(.text.FLASH_LockAllPages)
    FLASH_SetLatency                         0x00001899   Thumb Code    28  cw32l010_flash.o(.text.FLASH_SetLatency)
    FLASH_UnlockPage                         0x000018bd   Thumb Code    40  cw32l010_flash.o(.text.FLASH_UnlockPage)
    FLASH_WriteBytes                         0x000018e9   Thumb Code   164  cw32l010_flash.o(.text.FLASH_WriteBytes)
    GPIOA_IRQHandler                         0x000019a1   Thumb Code     2  bsp_gpio.o(.text.GPIOA_IRQHandler)
    GPIOB_IRQHandler                         0x000019a5   Thumb Code    28  bsp_gpio.o(.text.GPIOB_IRQHandler)
    GPIO_Init                                0x000019c9   Thumb Code   292  cw32l010_gpio.o(.text.GPIO_Init)
    GPIO_WritePin                            0x00001af1   Thumb Code    44  cw32l010_gpio.o(.text.GPIO_WritePin)
    GTIM1_IRQHandler                         0x00001b1d   Thumb Code     2  interrupts_cw32l010.o(.text.GTIM1_IRQHandler)
    GetTick                                  0x00001b21   Thumb Code     8  cw32l010_systick.o(.text.GetTick)
    Gpio_4g_Init                             0x00001b2d   Thumb Code    72  bsp_4g_driver.o(.text.Gpio_4g_Init)
    HardFault_Handler                        0x00001b85   Thumb Code     4  interrupts_cw32l010.o(.text.HardFault_Handler)
    I2C1_IRQHandler                          0x00001b89   Thumb Code     2  interrupts_cw32l010.o(.text.I2C1_IRQHandler)
    InitTick                                 0x00001b8d   Thumb Code    64  cw32l010_systick.o(.text.InitTick)
    LPTIM_IRQHandler                         0x00001bd5   Thumb Code     2  interrupts_cw32l010.o(.text.LPTIM_IRQHandler)
    LVD_IRQHandler                           0x00001bd7   Thumb Code     2  interrupts_cw32l010.o(.text.LVD_IRQHandler)
    NMI_Handler                              0x00001bd9   Thumb Code     2  interrupts_cw32l010.o(.text.NMI_Handler)
    RTC_AWTCmd                               0x00001bdd   Thumb Code   140  cw32l010_rtc.o(.text.RTC_AWTCmd)
    RTC_AWTConfig                            0x00001c69   Thumb Code   136  cw32l010_rtc.o(.text.RTC_AWTConfig)
    RTC_AWT_PSC_set                          0x00001cf1   Thumb Code   160  cw32l010_rtc.o(.text.RTC_AWT_PSC_set)
    RTC_AlarmCmd                             0x00001d9d   Thumb Code   184  cw32l010_rtc.o(.text.RTC_AlarmCmd)
    RTC_ClearITPendingBit                    0x00001e5d   Thumb Code    76  cw32l010_rtc.o(.text.RTC_ClearITPendingBit)
    RTC_Cmd                                  0x00001ea9   Thumb Code    88  cw32l010_rtc.o(.text.RTC_Cmd)
    RTC_DeInit                               0x00001f05   Thumb Code   116  cw32l010_rtc.o(.text.RTC_DeInit)
    RTC_GetITState                           0x00001f8d   Thumb Code    40  cw32l010_rtc.o(.text.RTC_GetITState)
    RTC_GetTime                              0x00001fb9   Thumb Code   120  cw32l010_rtc.o(.text.RTC_GetTime)
    RTC_IRQHandler                           0x00002039   Thumb Code    72  bsp_rtc.o(.text.RTC_IRQHandler)
    RTC_ITConfig                             0x00002085   Thumb Code   156  cw32l010_rtc.o(.text.RTC_ITConfig)
    RTC_Init                                 0x00002131   Thumb Code    68  cw32l010_rtc.o(.text.RTC_Init)
    RTC_SetAlarm                             0x0000217d   Thumb Code   188  cw32l010_rtc.o(.text.RTC_SetAlarm)
    RTC_SetClockSource                       0x00002249   Thumb Code    72  cw32l010_rtc.o(.text.RTC_SetClockSource)
    RTC_SetDate                              0x00002295   Thumb Code    96  cw32l010_rtc.o(.text.RTC_SetDate)
    RTC_SetTime                              0x000022f9   Thumb Code   180  cw32l010_rtc.o(.text.RTC_SetTime)
    ResumeTick                               0x000023bd   Thumb Code    12  cw32l010_systick.o(.text.ResumeTick)
    SPI1_IRQHandler                          0x000023cd   Thumb Code     2  interrupts_cw32l010.o(.text.SPI1_IRQHandler)
    SVC_Handler                              0x000023cf   Thumb Code     2  interrupts_cw32l010.o(.text.SVC_Handler)
    SYSCTRL_AHBPeriphClk_Enable              0x000023d1   Thumb Code    52  cw32l010_sysctrl.o(.text.SYSCTRL_AHBPeriphClk_Enable)
    SYSCTRL_AHBPeriphReset                   0x00002409   Thumb Code    44  cw32l010_sysctrl.o(.text.SYSCTRL_AHBPeriphReset)
    SYSCTRL_APBPeriphClk_Enable1             0x00002439   Thumb Code    52  cw32l010_sysctrl.o(.text.SYSCTRL_APBPeriphClk_Enable1)
    SYSCTRL_APBPeriphReset1                  0x00002471   Thumb Code    44  cw32l010_sysctrl.o(.text.SYSCTRL_APBPeriphReset1)
    SYSCTRL_ClearRstFlag                     0x000024a1   Thumb Code    20  cw32l010_sysctrl.o(.text.SYSCTRL_ClearRstFlag)
    SYSCTRL_GetHClkFreq                      0x000024b9   Thumb Code   148  cw32l010_sysctrl.o(.text.SYSCTRL_GetHClkFreq)
    SYSCTRL_GotoDeepSleep                    0x0000255d   Thumb Code    20  cw32l010_sysctrl.o(.text.SYSCTRL_GotoDeepSleep)
    SYSCTRL_HSI_Enable                       0x00002575   Thumb Code   152  cw32l010_sysctrl.o(.text.SYSCTRL_HSI_Enable)
    SYSCTRL_IRQHandler                       0x0000261d   Thumb Code     2  interrupts_cw32l010.o(.text.SYSCTRL_IRQHandler)
    SYSCTRL_LSI_Enable                       0x00002621   Thumb Code   120  cw32l010_sysctrl.o(.text.SYSCTRL_LSI_Enable)
    SYSCTRL_SysClk_Switch                    0x000026a5   Thumb Code   256  cw32l010_sysctrl.o(.text.SYSCTRL_SysClk_Switch)
    SYSCTRL_SystemCoreClockUpdate            0x000027b5   Thumb Code    16  cw32l010_sysctrl.o(.text.SYSCTRL_SystemCoreClockUpdate)
    SuspendTick                              0x000027c5   Thumb Code    12  cw32l010_systick.o(.text.SuspendTick)
    SysTickDelay                             0x000027d1   Thumb Code    64  cw32l010_systick.o(.text.SysTickDelay)
    SysTick_Handler                          0x00002861   Thumb Code    20  main.o(.text.SysTick_Handler)
    SystemCoreClockUpdate                    0x0000287d   Thumb Code     8  system_cw32l010.o(.text.SystemCoreClockUpdate)
    SystemInit                               0x0000288d   Thumb Code    48  system_cw32l010.o(.text.SystemInit)
    UART1_DeInit                             0x000028dd   Thumb Code    20  cw32l010_uart.o(.text.UART1_DeInit)
    UART1_IRQHandler                         0x000028f1   Thumb Code   332  bsp_uart.o(.text.UART1_IRQHandler)
    UART2_DeInit                             0x00002a4d   Thumb Code    20  cw32l010_uart.o(.text.UART2_DeInit)
    UART2_IRQHandler                         0x00002a65   Thumb Code   356  bsp_4g_driver.o(.text.UART2_IRQHandler)
    UART_ClearITPendingBit                   0x00002bd9   Thumb Code    22  cw32l010_uart.o(.text.UART_ClearITPendingBit)
    UART_GetFlagStatus                       0x00002bef   Thumb Code    30  cw32l010_uart.o(.text.UART_GetFlagStatus)
    UART_GetITStatus                         0x00002c0d   Thumb Code    30  cw32l010_uart.o(.text.UART_GetITStatus)
    UART_ITConfig                            0x00002c2b   Thumb Code    52  cw32l010_uart.o(.text.UART_ITConfig)
    UART_Init                                0x00002c61   Thumb Code   516  cw32l010_uart.o(.text.UART_Init)
    UART_ReceiveData_8bit                    0x00002e85   Thumb Code    14  cw32l010_uart.o(.text.UART_ReceiveData_8bit)
    UART_SendData_8bit                       0x00002e93   Thumb Code    18  cw32l010_uart.o(.text.UART_SendData_8bit)
    VC1_IRQHandler                           0x00002ea5   Thumb Code     2  interrupts_cw32l010.o(.text.VC1_IRQHandler)
    VC2_IRQHandler                           0x00002ea7   Thumb Code     2  interrupts_cw32l010.o(.text.VC2_IRQHandler)
    WDT_IRQHandler                           0x00002ea9   Thumb Code     2  interrupts_cw32l010.o(.text.WDT_IRQHandler)
    bsp_adc_init                             0x00003155   Thumb Code    72  bsp_adc.o(.text.bsp_adc_init)
    bsp_closeAllPeriphCLK                    0x000031a5   Thumb Code   208  main.o(.text.bsp_closeAllPeriphCLK)
    bsp_flash_init                           0x00003281   Thumb Code    20  bsp_flash.o(.text.bsp_flash_init)
    bsp_flash_page_erase                     0x00003295   Thumb Code    70  bsp_flash.o(.text.bsp_flash_page_erase)
    bsp_flash_page_write                     0x000032db   Thumb Code    80  bsp_flash.o(.text.bsp_flash_page_write)
    bsp_gpio_init                            0x0000332d   Thumb Code    92  bsp_gpio.o(.text.bsp_gpio_init)
    bsp_rtc_init                             0x00003395   Thumb Code   156  bsp_rtc.o(.text.bsp_rtc_init)
    bsp_setRTC_AutoWakeup                    0x00003439   Thumb Code    40  bsp_rtc.o(.text.bsp_setRTC_AutoWakeup)
    bsp_setRTC_Close                         0x00003465   Thumb Code    60  bsp_rtc.o(.text.bsp_setRTC_Close)
    bsp_uart_init                            0x000034a9   Thumb Code   216  bsp_uart.o(.text.bsp_uart_init)
    bsp_userTips_handler                     0x0000359d   Thumb Code   188  main.o(.text.bsp_userTips_handler)
    crc16                                    0x0000367d   Thumb Code   104  defultparameter.o(.text.crc16)
    device_factory_test                      0x000036e9   Thumb Code   252  defultparameter.o(.text.device_factory_test)
    driver_4Gmoudle_data_trans_sta           0x00003819   Thumb Code    56  bsp_4g_task.o(.text.driver_4Gmoudle_data_trans_sta)
    driver_4Gmoudle_init                     0x00003851   Thumb Code   100  bsp_4g_task.o(.text.driver_4Gmoudle_init)
    driver_4Gmoudle_net_connecting           0x000038c1   Thumb Code    40  bsp_4g_task.o(.text.driver_4Gmoudle_net_connecting)
    driver_4Gmoudle_netsta                   0x000038e9   Thumb Code    40  bsp_4g_task.o(.text.driver_4Gmoudle_netsta)
    fputc                                    0x00003915   Thumb Code    44  bsp_uart.o(.text.fputc)
    get_adc_value                            0x00003941   Thumb Code    96  bsp_adc.o(.text.get_adc_value)
    get_devinfo_SN                           0x000039ad   Thumb Code    92  msg_package.o(.text.get_devinfo_SN)
    main                                     0x00003a11   Thumb Code   344  main.o(.text.main)
    uart_send_string                         0x00003b91   Thumb Code    96  bsp_uart.o(.text.uart_send_string)
    usart_4g_init                            0x00003bf9   Thumb Code   208  bsp_4g_driver.o(.text.usart_4g_init)
    __0printf                                0x00003ce9   Thumb Code    24  printfa.o(i.__0printf)
    __1printf                                0x00003ce9   Thumb Code     0  printfa.o(i.__0printf)
    __2printf                                0x00003ce9   Thumb Code     0  printfa.o(i.__0printf)
    __c89printf                              0x00003ce9   Thumb Code     0  printfa.o(i.__0printf)
    printf                                   0x00003ce9   Thumb Code     0  printfa.o(i.__0printf)
    __0snprintf                              0x00003d09   Thumb Code    50  printfa.o(i.__0snprintf)
    __1snprintf                              0x00003d09   Thumb Code     0  printfa.o(i.__0snprintf)
    __2snprintf                              0x00003d09   Thumb Code     0  printfa.o(i.__0snprintf)
    __c89snprintf                            0x00003d09   Thumb Code     0  printfa.o(i.__0snprintf)
    snprintf                                 0x00003d09   Thumb Code     0  printfa.o(i.__0snprintf)
    __ARM_clz                                0x00003d41   Thumb Code    46  depilogue.o(i.__ARM_clz)
    __scatterload_copy                       0x00003d6f   Thumb Code    14  handlers.o(i.__scatterload_copy)
    __scatterload_null                       0x00003d7d   Thumb Code     2  handlers.o(i.__scatterload_null)
    __scatterload_zeroinit                   0x00003d7f   Thumb Code    14  handlers.o(i.__scatterload_zeroinit)
    _is_digit                                0x00003f01   Thumb Code    14  scanf_fp.o(i._is_digit)
    __ctype_table                            0x0000465e   Data         129  ctype_o.o(.constdata)
    hsiprs_tbl                               0x000046f4   Data          64  cw32l010_sysctrl.o(.rodata.hsiprs_tbl)
    Region$$Table$$Base                      0x00004828   Number         0  anon$$obj.o(Region$$Table)
    Region$$Table$$Limit                     0x00004848   Number         0  anon$$obj.o(Region$$Table)
    __stdout                                 0x20000000   Data           4  stdout.o(.data)
    SystemCoreClock                          0x20000004   Data           4  system_cw32l010.o(.data.SystemCoreClock)
    uwTickFreq                               0x20000008   Data           1  cw32l010_systick.o(.data.uwTickFreq)
    uwTickPrio                               0x2000000c   Data           4  cw32l010_systick.o(.data.uwTickPrio)
    device_4g                                0x20000014   Data           4  bsp_4g_task.o(.bss.device_4g)
    device_4g_para                           0x20000018   Data         108  bsp_4g_task.o(.bss.device_4g_para)
    factoryStep                              0x20000084   Data           1  defultparameter.o(.bss.factoryStep)
    msg_package                              0x20000085   Data         512  bsp_4g_task.o(.bss.msg_package)
    net_led_tick                             0x20000286   Data           2  main.o(.bss.net_led_tick)
    rec_send_cache                           0x20000288   Data          16  bsp_4g_task.o(.bss.rec_send_cache)
    uart1_msg                                0x20000298   Data          54  bsp_uart.o(.bss.uart1_msg)
    uwTick                                   0x200002d0   Data           4  cw32l010_systick.o(.bss.uwTick)
    __initial_sp                             0x200006d8   Data           0  startup_cw32l010.o(STACK)



==============================================================================

Memory Map of the image

  Image Entry point : 0x000000c1

  Load Region LR_IROM1 (Base: 0x00000000, Size: 0x00004858, Max: 0x00010000, ABSOLUTE)

    Execution Region ER_IROM1 (Exec base: 0x00000000, Load base: 0x00000000, Size: 0x00004848, Max: 0x00010000, ABSOLUTE)

    Exec Addr    Load Addr    Size         Type   Attr      Idx    E Section Name        Object

    0x00000000   0x00000000   0x000000c0   Data   RO            3    RESET               startup_cw32l010.o
    0x000000c0   0x000000c0   0x00000000   Code   RO         1036  * .ARM.Collect$$$$00000000  mc_p.l(entry.o)
    0x000000c0   0x000000c0   0x00000004   Code   RO         1155    .ARM.Collect$$$$00000001  mc_p.l(entry2.o)
    0x000000c4   0x000000c4   0x00000004   Code   RO         1158    .ARM.Collect$$$$00000004  mc_p.l(entry5.o)
    0x000000c8   0x000000c8   0x00000000   Code   RO         1160    .ARM.Collect$$$$00000008  mc_p.l(entry7b.o)
    0x000000c8   0x000000c8   0x00000000   Code   RO         1162    .ARM.Collect$$$$0000000A  mc_p.l(entry8b.o)
    0x000000c8   0x000000c8   0x00000008   Code   RO         1163    .ARM.Collect$$$$0000000B  mc_p.l(entry9a.o)
    0x000000d0   0x000000d0   0x00000000   Code   RO         1165    .ARM.Collect$$$$0000000D  mc_p.l(entry10a.o)
    0x000000d0   0x000000d0   0x00000000   Code   RO         1167    .ARM.Collect$$$$0000000F  mc_p.l(entry11a.o)
    0x000000d0   0x000000d0   0x00000004   Code   RO         1156    .ARM.Collect$$$$00002712  mc_p.l(entry2.o)
    0x000000d4   0x000000d4   0x00000028   Code   RO            4    .text               startup_cw32l010.o
    0x000000fc   0x000000fc   0x00000060   Code   RO         1043    .text               mc_p.l(uldiv.o)
    0x0000015c   0x0000015c   0x00000024   Code   RO         1047    .text               mc_p.l(memcpya.o)
    0x00000180   0x00000180   0x00000024   Code   RO         1049    .text               mc_p.l(memseta.o)
    0x000001a4   0x000001a4   0x00000028   Code   RO         1051    .text               mc_p.l(strstr.o)
    0x000001cc   0x000001cc   0x0000000e   Code   RO         1053    .text               mc_p.l(strlen.o)
    0x000001da   0x000001da   0x00000002   PAD
    0x000001dc   0x000001dc   0x0000003c   Code   RO         1119    .text               mc_p.l(sscanf.o)
    0x00000218   0x00000218   0x000000b2   Code   RO         1123    .text               mf_p.l(fadd.o)
    0x000002ca   0x000002ca   0x0000007a   Code   RO         1125    .text               mf_p.l(fmul.o)
    0x00000344   0x00000344   0x0000007c   Code   RO         1127    .text               mf_p.l(fdiv.o)
    0x000003c0   0x000003c0   0x00000164   Code   RO         1129    .text               mf_p.l(dadd.o)
    0x00000524   0x00000524   0x000000d0   Code   RO         1131    .text               mf_p.l(dmul.o)
    0x000005f4   0x000005f4   0x00000016   Code   RO         1141    .text               mf_p.l(fflti.o)
    0x0000060a   0x0000060a   0x0000000e   Code   RO         1143    .text               mf_p.l(ffltui.o)
    0x00000618   0x00000618   0x00000032   Code   RO         1147    .text               mf_p.l(ffixi.o)
    0x0000064a   0x0000064a   0x00000002   PAD
    0x0000064c   0x0000064c   0x00000048   Code   RO         1149    .text               mf_p.l(dfixi.o)
    0x00000694   0x00000694   0x00000028   Code   RO         1151    .text               mf_p.l(f2d.o)
    0x000006bc   0x000006bc   0x00000038   Code   RO         1153    .text               mf_p.l(d2f.o)
    0x000006f4   0x000006f4   0x0000003e   Code   RO         1172    .text               mc_p.l(uidiv_div0.o)
    0x00000732   0x00000732   0x00000020   Code   RO         1178    .text               mc_p.l(llshl.o)
    0x00000752   0x00000752   0x00000022   Code   RO         1180    .text               mc_p.l(llushr.o)
    0x00000774   0x00000774   0x00000026   Code   RO         1182    .text               mc_p.l(llsshr.o)
    0x0000079a   0x0000079a   0x0000014a   Code   RO         1193    .text               mc_p.l(_scanf_longlong.o)
    0x000008e4   0x000008e4   0x0000014a   Code   RO         1195    .text               mc_p.l(_scanf_int.o)
    0x00000a2e   0x00000a2e   0x000000e8   Code   RO         1197    .text               mc_p.l(_scanf_str.o)
    0x00000b16   0x00000b16   0x00000002   PAD
    0x00000b18   0x00000b18   0x00000374   Code   RO         1199    .text               mc_p.l(scanf_fp.o)
    0x00000e8c   0x00000e8c   0x0000002c   Code   RO         1203    .text               mc_p.l(scanf_char.o)
    0x00000eb8   0x00000eb8   0x00000044   Code   RO         1205    .text               mc_p.l(_sgetc.o)
    0x00000efc   0x00000efc   0x00000000   Code   RO         1211    .text               mc_p.l(iusefp.o)
    0x00000efc   0x00000efc   0x00000082   Code   RO         1212    .text               mf_p.l(fepilogue.o)
    0x00000f7e   0x00000f7e   0x000000be   Code   RO         1214    .text               mf_p.l(depilogue.o)
    0x0000103c   0x0000103c   0x000000f0   Code   RO         1218    .text               mf_p.l(ddiv.o)
    0x0000112c   0x0000112c   0x00000040   Code   RO         1220    .text               mf_p.l(dfixul.o)
    0x0000116c   0x0000116c   0x00000028   Code   RO         1222    .text               mf_p.l(cdrcmple.o)
    0x00001194   0x00001194   0x00000024   Code   RO         1224    .text               mc_p.l(init.o)
    0x000011b8   0x000011b8   0x00000030   Code   RO         1226    .text               mc_p.l(llmul.o)
    0x000011e8   0x000011e8   0x00000008   Code   RO         1230    .text               mc_p.l(ctype_o.o)
    0x000011f0   0x000011f0   0x00000012   Code   RO         1252    .text               mc_p.l(isspace_o.o)
    0x00001202   0x00001202   0x0000001e   Code   RO         1258    .text               mc_p.l(_chval.o)
    0x00001220   0x00001220   0x00000338   Code   RO         1260    .text               mc_p.l(_scanf.o)
    0x00001558   0x00001558   0x0000001c   Code   RO         1264    .text               mf_p.l(dfltul.o)
    0x00001574   0x00001574   0x00000008   Code   RO          590    .text.ADC_ClearITPendingAll  cw32l010_adc.o
    0x0000157c   0x0000157c   0x0000001c   Code   RO          592    .text.ADC_ClearITPendingBit  cw32l010_adc.o
    0x00001598   0x00001598   0x00000018   Code   RO          576    .text.ADC_DeInit    cw32l010_adc.o
    0x000015b0   0x000015b0   0x0000000c   Code   RO          582    .text.ADC_Disable   cw32l010_adc.o
    0x000015bc   0x000015bc   0x0000000c   Code   RO          580    .text.ADC_Enable    cw32l010_adc.o
    0x000015c8   0x000015c8   0x00000018   Code   RO          600    .text.ADC_GetConversionValue  cw32l010_adc.o
    0x000015e0   0x000015e0   0x00000002   Code   RO           59    .text.ADC_IRQHandler  interrupts_cw32l010.o
    0x000015e2   0x000015e2   0x00000002   PAD
    0x000015e4   0x000015e4   0x00000184   Code   RO          578    .text.ADC_Init      cw32l010_adc.o
    0x00001768   0x00001768   0x00000030   Code   RO          596    .text.ADC_SoftwareStartConvCmd  cw32l010_adc.o
    0x00001798   0x00001798   0x00000002   Code   RO           61    .text.ATIM_IRQHandler  interrupts_cw32l010.o
    0x0000179a   0x0000179a   0x00000002   PAD
    0x0000179c   0x0000179c   0x00000020   Code   RO          107    .text.BTIM1_IRQHandler  bsp_tim.o
    0x000017bc   0x000017bc   0x00000002   Code   RO           71    .text.BTIM2_IRQHandler  interrupts_cw32l010.o
    0x000017be   0x000017be   0x00000002   Code   RO           73    .text.BTIM3_IRQHandler  interrupts_cw32l010.o
    0x000017c0   0x000017c0   0x00000016   Code   RO          464    .text.BTIM_ClearITPendingBit  cw32l010_btim.o
    0x000017d6   0x000017d6   0x0000001e   Code   RO          462    .text.BTIM_GetITStatus  cw32l010_btim.o
    0x000017f4   0x000017f4   0x00000002   Code   RO           79    .text.CLKFAULT_IRQHandler  interrupts_cw32l010.o
    0x000017f6   0x000017f6   0x0000000e   Code   RO          677    .text.Device_4G_Task  bsp_4g_task.o
    0x00001804   0x00001804   0x00000002   Code   RO           55    .text.FLASHRAM_IRQHandler  interrupts_cw32l010.o
    0x00001806   0x00001806   0x00000002   PAD
    0x00001808   0x00001808   0x00000088   Code   RO          425    .text.FLASH_ErasePage  cw32l010_flash.o
    0x00001890   0x00001890   0x00000008   Code   RO          419    .text.FLASH_LockAllPages  cw32l010_flash.o
    0x00001898   0x00001898   0x00000024   Code   RO          411    .text.FLASH_SetLatency  cw32l010_flash.o
    0x000018bc   0x000018bc   0x0000002c   Code   RO          421    .text.FLASH_UnlockPage  cw32l010_flash.o
    0x000018e8   0x000018e8   0x000000b8   Code   RO          429    .text.FLASH_WriteBytes  cw32l010_flash.o
    0x000019a0   0x000019a0   0x00000002   Code   RO          154    .text.GPIOA_IRQHandler  bsp_gpio.o
    0x000019a2   0x000019a2   0x00000002   PAD
    0x000019a4   0x000019a4   0x00000024   Code   RO          152    .text.GPIOB_IRQHandler  bsp_gpio.o
    0x000019c8   0x000019c8   0x00000128   Code   RO          207    .text.GPIO_Init     cw32l010_gpio.o
    0x00001af0   0x00001af0   0x0000002c   Code   RO          213    .text.GPIO_WritePin  cw32l010_gpio.o
    0x00001b1c   0x00001b1c   0x00000002   Code   RO           67    .text.GTIM1_IRQHandler  interrupts_cw32l010.o
    0x00001b1e   0x00001b1e   0x00000002   PAD
    0x00001b20   0x00001b20   0x0000000c   Code   RO          334    .text.GetTick       cw32l010_systick.o
    0x00001b2c   0x00001b2c   0x00000058   Code   RO          629    .text.Gpio_4g_Init  bsp_4g_driver.o
    0x00001b84   0x00001b84   0x00000004   Code   RO           47    .text.HardFault_Handler  interrupts_cw32l010.o
    0x00001b88   0x00001b88   0x00000002   Code   RO           75    .text.I2C1_IRQHandler  interrupts_cw32l010.o
    0x00001b8a   0x00001b8a   0x00000002   PAD
    0x00001b8c   0x00001b8c   0x00000048   Code   RO          328    .text.InitTick      cw32l010_systick.o
    0x00001bd4   0x00001bd4   0x00000002   Code   RO           69    .text.LPTIM_IRQHandler  interrupts_cw32l010.o
    0x00001bd6   0x00001bd6   0x00000002   Code   RO           53    .text.LVD_IRQHandler  interrupts_cw32l010.o
    0x00001bd8   0x00001bd8   0x00000002   Code   RO           45    .text.NMI_Handler   interrupts_cw32l010.o
    0x00001bda   0x00001bda   0x00000002   PAD
    0x00001bdc   0x00001bdc   0x0000008c   Code   RO          555    .text.RTC_AWTCmd    cw32l010_rtc.o
    0x00001c68   0x00001c68   0x00000088   Code   RO          553    .text.RTC_AWTConfig  cw32l010_rtc.o
    0x00001cf0   0x00001cf0   0x000000ac   Code   RO          563    .text.RTC_AWT_PSC_set  cw32l010_rtc.o
    0x00001d9c   0x00001d9c   0x000000c0   Code   RO          541    .text.RTC_AlarmCmd  cw32l010_rtc.o
    0x00001e5c   0x00001e5c   0x0000004c   Code   RO          531    .text.RTC_ClearITPendingBit  cw32l010_rtc.o
    0x00001ea8   0x00001ea8   0x0000005c   Code   RO          519    .text.RTC_Cmd       cw32l010_rtc.o
    0x00001f04   0x00001f04   0x00000088   Code   RO          515    .text.RTC_DeInit    cw32l010_rtc.o
    0x00001f8c   0x00001f8c   0x0000002c   Code   RO          527    .text.RTC_GetITState  cw32l010_rtc.o
    0x00001fb8   0x00001fb8   0x00000080   Code   RO          533    .text.RTC_GetTime   cw32l010_rtc.o
    0x00002038   0x00002038   0x0000004c   Code   RO          133    .text.RTC_IRQHandler  bsp_rtc.o
    0x00002084   0x00002084   0x000000ac   Code   RO          529    .text.RTC_ITConfig  cw32l010_rtc.o
    0x00002130   0x00002130   0x0000004c   Code   RO          517    .text.RTC_Init      cw32l010_rtc.o
    0x0000217c   0x0000217c   0x000000cc   Code   RO          537    .text.RTC_SetAlarm  cw32l010_rtc.o
    0x00002248   0x00002248   0x0000004c   Code   RO          521    .text.RTC_SetClockSource  cw32l010_rtc.o
    0x00002294   0x00002294   0x00000064   Code   RO          523    .text.RTC_SetDate   cw32l010_rtc.o
    0x000022f8   0x000022f8   0x000000c4   Code   RO          525    .text.RTC_SetTime   cw32l010_rtc.o
    0x000023bc   0x000023bc   0x00000010   Code   RO          340    .text.ResumeTick    cw32l010_systick.o
    0x000023cc   0x000023cc   0x00000002   Code   RO           77    .text.SPI1_IRQHandler  interrupts_cw32l010.o
    0x000023ce   0x000023ce   0x00000002   Code   RO           49    .text.SVC_Handler   interrupts_cw32l010.o
    0x000023d0   0x000023d0   0x00000038   Code   RO          292    .text.SYSCTRL_AHBPeriphClk_Enable  cw32l010_sysctrl.o
    0x00002408   0x00002408   0x00000030   Code   RO          298    .text.SYSCTRL_AHBPeriphReset  cw32l010_sysctrl.o
    0x00002438   0x00002438   0x00000038   Code   RO          294    .text.SYSCTRL_APBPeriphClk_Enable1  cw32l010_sysctrl.o
    0x00002470   0x00002470   0x00000030   Code   RO          300    .text.SYSCTRL_APBPeriphReset1  cw32l010_sysctrl.o
    0x000024a0   0x000024a0   0x00000018   Code   RO          308    .text.SYSCTRL_ClearRstFlag  cw32l010_sysctrl.o
    0x000024b8   0x000024b8   0x000000a4   Code   RO          244    .text.SYSCTRL_GetHClkFreq  cw32l010_sysctrl.o
    0x0000255c   0x0000255c   0x00000018   Code   RO          316    .text.SYSCTRL_GotoDeepSleep  cw32l010_sysctrl.o
    0x00002574   0x00002574   0x000000a8   Code   RO          260    .text.SYSCTRL_HSI_Enable  cw32l010_sysctrl.o
    0x0000261c   0x0000261c   0x00000002   Code   RO           57    .text.SYSCTRL_IRQHandler  interrupts_cw32l010.o
    0x0000261e   0x0000261e   0x00000002   PAD
    0x00002620   0x00002620   0x00000084   Code   RO          264    .text.SYSCTRL_LSI_Enable  cw32l010_sysctrl.o
    0x000026a4   0x000026a4   0x00000110   Code   RO          280    .text.SYSCTRL_SysClk_Switch  cw32l010_sysctrl.o
    0x000027b4   0x000027b4   0x00000010   Code   RO          242    .text.SYSCTRL_SystemCoreClockUpdate  cw32l010_sysctrl.o
    0x000027c4   0x000027c4   0x0000000c   Code   RO          338    .text.SuspendTick   cw32l010_systick.o
    0x000027d0   0x000027d0   0x00000040   Code   RO          336    .text.SysTickDelay  cw32l010_systick.o
    0x00002810   0x00002810   0x00000050   Code   RO          330    .text.SysTick_Config  cw32l010_systick.o
    0x00002860   0x00002860   0x0000001c   Code   RO           27    .text.SysTick_Handler  main.o
    0x0000287c   0x0000287c   0x00000010   Code   RO           11    .text.SystemCoreClockUpdate  system_cw32l010.o
    0x0000288c   0x0000288c   0x00000050   Code   RO           13    .text.SystemInit    system_cw32l010.o
    0x000028dc   0x000028dc   0x00000014   Code   RO          372    .text.UART1_DeInit  cw32l010_uart.o
    0x000028f0   0x000028f0   0x0000015c   Code   RO          193    .text.UART1_IRQHandler  bsp_uart.o
    0x00002a4c   0x00002a4c   0x00000018   Code   RO          374    .text.UART2_DeInit  cw32l010_uart.o
    0x00002a64   0x00002a64   0x00000174   Code   RO          637    .text.UART2_IRQHandler  bsp_4g_driver.o
    0x00002bd8   0x00002bd8   0x00000016   Code   RO          380    .text.UART_ClearITPendingBit  cw32l010_uart.o
    0x00002bee   0x00002bee   0x0000001e   Code   RO          358    .text.UART_GetFlagStatus  cw32l010_uart.o
    0x00002c0c   0x00002c0c   0x0000001e   Code   RO          378    .text.UART_GetITStatus  cw32l010_uart.o
    0x00002c2a   0x00002c2a   0x00000034   Code   RO          376    .text.UART_ITConfig  cw32l010_uart.o
    0x00002c5e   0x00002c5e   0x00000002   PAD
    0x00002c60   0x00002c60   0x00000224   Code   RO          364    .text.UART_Init     cw32l010_uart.o
    0x00002e84   0x00002e84   0x0000000e   Code   RO          362    .text.UART_ReceiveData_8bit  cw32l010_uart.o
    0x00002e92   0x00002e92   0x00000012   Code   RO          354    .text.UART_SendData_8bit  cw32l010_uart.o
    0x00002ea4   0x00002ea4   0x00000002   Code   RO           63    .text.VC1_IRQHandler  interrupts_cw32l010.o
    0x00002ea6   0x00002ea6   0x00000002   Code   RO           65    .text.VC2_IRQHandler  interrupts_cw32l010.o
    0x00002ea8   0x00002ea8   0x00000002   Code   RO           51    .text.WDT_IRQHandler  interrupts_cw32l010.o
    0x00002eaa   0x00002eaa   0x00000002   PAD
    0x00002eac   0x00002eac   0x00000034   Code   RO          139    .text.__NVIC_DisableIRQ  bsp_rtc.o
    0x00002ee0   0x00002ee0   0x00000028   Code   RO          131    .text.__NVIC_EnableIRQ  bsp_rtc.o
    0x00002f08   0x00002f08   0x00000028   Code   RO          191    .text.__NVIC_EnableIRQ  bsp_uart.o
    0x00002f30   0x00002f30   0x0000002c   Code   RO          635    .text.__NVIC_EnableIRQ  bsp_4g_driver.o
    0x00002f5c   0x00002f5c   0x0000007c   Code   RO          129    .text.__NVIC_SetPriority  bsp_rtc.o
    0x00002fd8   0x00002fd8   0x0000007c   Code   RO          189    .text.__NVIC_SetPriority  bsp_uart.o
    0x00003054   0x00003054   0x0000007c   Code   RO          332    .text.__NVIC_SetPriority  cw32l010_systick.o
    0x000030d0   0x000030d0   0x00000084   Code   RO          633    .text.__NVIC_SetPriority  bsp_4g_driver.o
    0x00003154   0x00003154   0x00000050   Code   RO          116    .text.bsp_adc_init  bsp_adc.o
    0x000031a4   0x000031a4   0x000000dc   Code   RO           29    .text.bsp_closeAllPeriphCLK  main.o
    0x00003280   0x00003280   0x00000014   Code   RO           88    .text.bsp_flash_init  bsp_flash.o
    0x00003294   0x00003294   0x00000046   Code   RO           90    .text.bsp_flash_page_erase  bsp_flash.o
    0x000032da   0x000032da   0x00000050   Code   RO           92    .text.bsp_flash_page_write  bsp_flash.o
    0x0000332a   0x0000332a   0x00000002   PAD
    0x0000332c   0x0000332c   0x00000068   Code   RO          150    .text.bsp_gpio_init  bsp_gpio.o
    0x00003394   0x00003394   0x000000a4   Code   RO          127    .text.bsp_rtc_init  bsp_rtc.o
    0x00003438   0x00003438   0x0000002c   Code   RO          141    .text.bsp_setRTC_AutoWakeup  bsp_rtc.o
    0x00003464   0x00003464   0x00000044   Code   RO          137    .text.bsp_setRTC_Close  bsp_rtc.o
    0x000034a8   0x000034a8   0x000000f4   Code   RO          187    .text.bsp_uart_init  bsp_uart.o
    0x0000359c   0x0000359c   0x000000e0   Code   RO           25    .text.bsp_userTips_handler  main.o
    0x0000367c   0x0000367c   0x0000006c   Code   RO          952    .text.crc16         defultparameter.o
    0x000036e8   0x000036e8   0x00000130   Code   RO          954    .text.device_factory_test  defultparameter.o
    0x00003818   0x00003818   0x00000038   Code   RO          687    .text.driver_4Gmoudle_data_trans_sta  bsp_4g_task.o
    0x00003850   0x00003850   0x00000070   Code   RO          673    .text.driver_4Gmoudle_init  bsp_4g_task.o
    0x000038c0   0x000038c0   0x00000028   Code   RO          695    .text.driver_4Gmoudle_net_connecting  bsp_4g_task.o
    0x000038e8   0x000038e8   0x0000002c   Code   RO          679    .text.driver_4Gmoudle_netsta  bsp_4g_task.o
    0x00003914   0x00003914   0x0000002c   Code   RO          195    .text.fputc         bsp_uart.o
    0x00003940   0x00003940   0x0000006c   Code   RO          118    .text.get_adc_value  bsp_adc.o
    0x000039ac   0x000039ac   0x00000064   Code   RO          167    .text.get_devinfo_SN  msg_package.o
    0x00003a10   0x00003a10   0x00000180   Code   RO           31    .text.main          main.o
    0x00003b90   0x00003b90   0x00000068   Code   RO          185    .text.uart_send_string  bsp_uart.o
    0x00003bf8   0x00003bf8   0x000000f0   Code   RO          631    .text.usart_4g_init  bsp_4g_driver.o
    0x00003ce8   0x00003ce8   0x00000020   Code   RO         1064    i.__0printf         mc_p.l(printfa.o)
    0x00003d08   0x00003d08   0x00000038   Code   RO         1065    i.__0snprintf       mc_p.l(printfa.o)
    0x00003d40   0x00003d40   0x0000002e   Code   RO         1216    i.__ARM_clz         mf_p.l(depilogue.o)
    0x00003d6e   0x00003d6e   0x0000000e   Code   RO         1271    i.__scatterload_copy  mc_p.l(handlers.o)
    0x00003d7c   0x00003d7c   0x00000002   Code   RO         1272    i.__scatterload_null  mc_p.l(handlers.o)
    0x00003d7e   0x00003d7e   0x0000000e   Code   RO         1273    i.__scatterload_zeroinit  mc_p.l(handlers.o)
    0x00003d8c   0x00003d8c   0x00000174   Code   RO         1071    i._fp_digits        mc_p.l(printfa.o)
    0x00003f00   0x00003f00   0x0000000e   Code   RO         1201    i._is_digit         mc_p.l(scanf_fp.o)
    0x00003f0e   0x00003f0e   0x00000002   PAD
    0x00003f10   0x00003f10   0x000006ec   Code   RO         1072    i._printf_core      mc_p.l(printfa.o)
    0x000045fc   0x000045fc   0x00000020   Code   RO         1073    i._printf_post_padding  mc_p.l(printfa.o)
    0x0000461c   0x0000461c   0x0000002c   Code   RO         1074    i._printf_pre_padding  mc_p.l(printfa.o)
    0x00004648   0x00004648   0x00000016   Code   RO         1075    i._snputc           mc_p.l(printfa.o)
    0x0000465e   0x0000465e   0x00000081   Data   RO         1231    .constdata          mc_p.l(ctype_o.o)
    0x000046df   0x000046df   0x00000001   PAD
    0x000046e0   0x000046e0   0x00000004   Data   RO         1232    .constdata          mc_p.l(ctype_o.o)
    0x000046e4   0x000046e4   0x00000010   Data   RO           36    .rodata.cst16       main.o
    0x000046f4   0x000046f4   0x00000040   Data   RO          320    .rodata.hsiprs_tbl  cw32l010_sysctrl.o
    0x00004734   0x00004734   0x00000063   Data   RO           35    .rodata.str1.1      main.o
    0x00004797   0x00004797   0x00000028   Data   RO          177    .rodata.str1.1      msg_package.o
    0x000047bf   0x000047bf   0x00000067   Data   RO          957    .rodata.str1.1      defultparameter.o
    0x00004826   0x00004826   0x00000002   PAD
    0x00004828   0x00004828   0x00000020   Data   RO         1270    Region$$Table       anon$$obj.o


    Execution Region RW_IRAM1 (Exec base: 0x20000000, Load base: 0x00004848, Size: 0x000006d8, Max: 0x00001000, ABSOLUTE)

    Exec Addr    Load Addr    Size         Type   Attr      Idx    E Section Name        Object

    0x20000000   0x00004848   0x00000004   Data   RW         1169    .data               mc_p.l(stdout.o)
    0x20000004   0x0000484c   0x00000004   Data   RW           17    .data.SystemCoreClock  system_cw32l010.o
    0x20000008   0x00004850   0x00000001   Data   RW          343    .data.uwTickFreq    cw32l010_systick.o
    0x20000009   0x00004851   0x00000003   PAD
    0x2000000c   0x00004854   0x00000004   Data   RW          342    .data.uwTickPrio    cw32l010_systick.o
    0x20000010        -       0x00000004   Zero   RW           34    .bss.bsp_userTips_handler.rrr  main.o
    0x20000014        -       0x00000004   Zero   RW          697    .bss.device_4g      bsp_4g_task.o
    0x20000018        -       0x0000006c   Zero   RW          698    .bss.device_4g_para  bsp_4g_task.o
    0x20000084        -       0x00000001   Zero   RW          956    .bss.factoryStep    defultparameter.o
    0x20000085        -       0x00000200   Zero   RW          699    .bss.msg_package    bsp_4g_task.o
    0x20000285   0x00004858   0x00000001   PAD
    0x20000286        -       0x00000002   Zero   RW           33    .bss.net_led_tick   main.o
    0x20000288        -       0x00000010   Zero   RW          700    .bss.rec_send_cache  bsp_4g_task.o
    0x20000298        -       0x00000036   Zero   RW          199    .bss.uart1_msg      bsp_uart.o
    0x200002ce   0x00004858   0x00000002   PAD
    0x200002d0        -       0x00000004   Zero   RW          344    .bss.uwTick         cw32l010_systick.o
    0x200002d4   0x00004858   0x00000004   PAD
    0x200002d8        -       0x00000400   Zero   RW            1    STACK               startup_cw32l010.o


==============================================================================

Image component sizes


      Code (inc. data)   RO Data    RW Data    ZI Data      Debug   Object Name

       876         76          0          0          0      15893   bsp_4g_driver.o
       266         16          0          0        640       3789   bsp_4g_task.o
       188         20          0          0          0       8142   bsp_adc.o
       170          0          0          0          0       5038   bsp_flash.o
       142         20          0          0          0       8548   bsp_gpio.o
       568         28          0          0          0      12971   bsp_rtc.o
        32          4          0          0          0       7416   bsp_tim.o
       904         52          0          0         54      14425   bsp_uart.o
       544         52          0          0          0      11632   cw32l010_adc.o
        52          0          0          0          0       9814   cw32l010_btim.o
       408         32          0          0          0       9928   cw32l010_flash.o
       340          4          0          0          0       9928   cw32l010_gpio.o
      1940        120          0          0          0      13880   cw32l010_rtc.o
      1008        124         64          0          0      15614   cw32l010_sysctrl.o
       380         28          0          5          4       3286   cw32l010_systick.o
       758         36          0          0          0      11800   cw32l010_uart.o
       412         56        103          0          1       1824   defultparameter.o
        38          0          0          0          0       1724   interrupts_cw32l010.o
       856         96        115          0          6       7321   main.o
       100          8         40          0          0       3588   msg_package.o
        40         14        192          0       1024        640   startup_cw32l010.o
        96         40          0          4          0       4945   system_cw32l010.o

    ----------------------------------------------------------------------
     10140        826        548         12       1736     182146   Object Totals
         0          0         32          0          0          0   (incl. Generated)
        22          0          2          3          7          0   (incl. Padding)

    ----------------------------------------------------------------------

      Code (inc. data)   RO Data    RW Data    ZI Data      Debug   Library Member Name

        30          0          0          0          0         60   _chval.o
       824         12          0          0          0         84   _scanf.o
       330          0          0          0          0         84   _scanf_int.o
       330          0          0          0          0         84   _scanf_longlong.o
       232          0          0          0          0         84   _scanf_str.o
        68          0          0          0          0         76   _sgetc.o
         8          4        133          0          0         60   ctype_o.o
         0          0          0          0          0          0   entry.o
         0          0          0          0          0          0   entry10a.o
         0          0          0          0          0          0   entry11a.o
         8          4          0          0          0          0   entry2.o
         4          0          0          0          0          0   entry5.o
         0          0          0          0          0          0   entry7b.o
         0          0          0          0          0          0   entry8b.o
         8          4          0          0          0          0   entry9a.o
        30          0          0          0          0          0   handlers.o
        36          8          0          0          0         68   init.o
        18          0          0          0          0         68   isspace_o.o
         0          0          0          0          0          0   iusefp.o
        48          0          0          0          0         72   llmul.o
        32          0          0          0          0         68   llshl.o
        38          0          0          0          0         68   llsshr.o
        34          0          0          0          0         68   llushr.o
        36          0          0          0          0         60   memcpya.o
        36          0          0          0          0        100   memseta.o
      2330        104          0          0          0        564   printfa.o
        44          8          0          0          0         84   scanf_char.o
       898         14          0          0          0        184   scanf_fp.o
        60         10          0          0          0         84   sscanf.o
         0          0          0          4          0          0   stdout.o
        14          0          0          0          0         60   strlen.o
        40          0          0          0          0         72   strstr.o
        62          0          0          0          0         72   uidiv_div0.o
        96          0          0          0          0         84   uldiv.o
        40          2          0          0          0         68   cdrcmple.o
        56          0          0          0          0         68   d2f.o
       356          4          0          0          0        140   dadd.o
       240          6          0          0          0         84   ddiv.o
       236          0          0          0          0        216   depilogue.o
        72         10          0          0          0         72   dfixi.o
        64         10          0          0          0         68   dfixul.o
        28          6          0          0          0         68   dfltul.o
       208          6          0          0          0         88   dmul.o
        40          0          0          0          0         60   f2d.o
       178          0          0          0          0        108   fadd.o
       124          0          0          0          0         72   fdiv.o
       130          0          0          0          0        144   fepilogue.o
        50          0          0          0          0         60   ffixi.o
        22          0          0          0          0         68   fflti.o
        14          0          0          0          0         68   ffltui.o
       122          0          0          0          0         72   fmul.o

    ----------------------------------------------------------------------
      7682        212        134          4          0       3832   Library Totals
         8          0          1          0          0          0   (incl. Padding)

    ----------------------------------------------------------------------

      Code (inc. data)   RO Data    RW Data    ZI Data      Debug   Library Name

      5694        168        133          4          0       2308   mc_p.l
      1980         44          0          0          0       1524   mf_p.l

    ----------------------------------------------------------------------
      7682        212        134          4          0       3832   Library Totals

    ----------------------------------------------------------------------

==============================================================================


      Code (inc. data)   RO Data    RW Data    ZI Data      Debug   

     17822       1038        682         16       1736     183786   Grand Totals
     17822       1038        682         16       1736     183786   ELF Image Totals
     17822       1038        682         16          0          0   ROM Totals

==============================================================================

    Total RO  Size (Code + RO Data)                18504 (  18.07kB)
    Total RW  Size (RW Data + ZI Data)              1752 (   1.71kB)
    Total ROM Size (Code + RO Data + RW Data)      18520 (  18.09kB)

==============================================================================

